:020000040800F2
:10000000606A0020FD1B00086D190008E91B00084C
:10001000E91B0008E91B0008E91B000800000000BC
:100020000000000000000000000000009D1C00080F
:10003000E91B000800000000551C0008252E0008E0
:10004000C51D0008C51D0008C51D0008C51D000808
:10005000C51D0008C51D0008C51D0008C51D0008F8
:10006000C51D0008C51D0008C51D0008C51D0008E8
:10007000C51D0008C51D0008C51D0008C51D0008D8
:10008000C51D0008C51D0008C51D0008C51D0008C8
:10009000C51D0008C51D0008C51D0008C51D0008B8
:1000A000C51D0008C51D0008C51D0008C51D0008A8
:1000B000C51D0008C51D0008C51D0008C51D000898
:1000C000C51D0008C51D0008C51D0008C51D000888
:1000D000C51D0008C51D0008C51D0008C51D000878
:1000E000C51D0008C51D0008C51D0008C51D000868
:1000F000C51D0008C51D0008C51D0008C51D000858
:10010000C51D0008C51D0008C51D0008C51D000847
:10011000C51D0008C51D0008C51D0008C51D000837
:10012000C51D0008C51D0008C51D0008C51D000827
:1001300053B94AB9002908BF00281CBF4FF0FF314E
:100140004FF0FF3000F00CB8ADF1080C6DE904CEB3
:1001500000F008F8DDF804E0DDE9022304B07047A0
:10016000704700BF2DE9F04786468C460846154685
:1001700074461946089E002B40F0C2808542B2FAB0
:1001800082F245D94AB1C2F1200300FA02FC2EFAEC
:1001900003F3954043EA0C0C94404FEA154EBCFB28
:1001A000FEF8A8B20EFB18CC08FB00F9230C43EABA
:1001B0000C43994528D9EB1808F1FF3704D299452B
:1001C00002D9A8F102072B44A3EB0903B3FBFEFC01
:1001D0000EFB1C330CFB00F0A4B244EA0344A04223
:1001E00014D92C190CF1FF3304D2A04202D9ACF17E
:1001F00002032C44241A43EA07401EB10023D440D2
:1002000034607360BDE8F0874746DDE76346F1E799
:1002100092BB0121431B4FEA154EB3FBFEFCAFB26C
:100220000EFB1C330CFB07F8200C40EA03439845F7
:1002300062D9EB180CF1FF3004D2984502D9ACF129
:1002400002002B44A3EB0803B3FBFEFC0EFB1C33A4
:100250000CFB07F7A4B244EA0344A7424ED92C1979
:100260000CF1FF3304D2A74202D9ACF102032C44B3
:10027000E41B43EA0040C0E7C2F12003954020FAA6
:1002800003F12EFA03F34FEA154EB1FBFEFC90404A
:100290000343AFB20EFB1C100CFB07F8190C41EA2C
:1002A0000041884504FA02F422D969180CF1FF30A4
:1002B00004D2884502D9ACF102002944A1EB08011F
:1002C000B1FBFEFC0EFB1C110CFB07F79BB243EAD3
:1002D00001439F420ED9EB180CF1FF3104D29F422B
:1002E00002D9ACF102012B44DB1B41EA004192E749
:1002F0006046E3E76146F7E76046A3E76346B7E792
:10030000834206D916B9002108467BE7C6E900E01A
:10031000F9E7B3FA83F78FB9834201D3724508D85E
:10032000BEEB020460EB030301209C461EB90021D2
:1003300068E73846FAE7C6E9004CF8E7C7F1200C51
:10034000BB4022FA0CF41C434FEA144920FA0CF388
:10035000B3FBF9F8B8402EFA0CF101430EFA07F599
:1003600009FB18301FFA84FE08FB0EFA0B0C43EA57
:1003700000439A4502FA07F240D9E31808F1FF302A
:1003800004D29A4502D9A8F102002344A3EB0A0340
:10039000B3FBF9F809FB183308FB0EFE89B241EAFA
:1003A00003418E452CD9611808F1FF3304D28E45E4
:1003B00002D9A8F10203214443EA0040A0FB0298BD
:1003C000A1EB0E014145CE46434602D306D14D4531
:1003D00004D2B9EB020E68EB04030138002EA6D05C
:1003E000B5EB0E0261EB030101FA0CFC22FA07F3F4
:1003F0004CEA0303F940C6E9003198E74046C5E7F7
:100400004346D9E730B54921254887B004F0BAFE04
:1004100000F068F803A800F019FD224B1B68834226
:1004200004D04521204804F0ADFEFEE74921059A9D
:100430001E4804F0A7FE03991D484B7D0A7DC98A1A
:100440001C4D0091492104F09DFE49211A4804F0F9
:1004500099FE02A99DF8100001F03AFA03990823C9
:100460002A460989029804F09BFE044600B1FEE783
:10047000029804F094FE05F0CCFF00F0A9FF2B6871
:1004800083F3088884F31488BFF36F8FBFF36F8FF3
:100490006B6898474521094804F074FEFEE700BFE9
:1004A0007C8000087002002095800008B880000859
:1004B000E780000868020020058100082A81000802
:1004C00021B1012906D06FF015007047044B53F895
:1004D00030007047024B03EBC0035868704700BF01
:1004E000047D00084FF4C051014803F00FBA00BF6B
:1004F0005C2000202DE9F04FDFF8FC91F7B036A822
:100500000F46DDE9818A15461C46D9F8006006F0E1
:1005100016FF002136A803F031FBB8F1000F07D019
:10052000BAF1000F04DD5246414636A806F010FF2E
:100530004FF000083B897A89D7F80CB013449B44EC
:10054000C34565D80CA936A806F041FF36A806F0C9
:10055000FAFE839B23B1202218460CA904F0E4FE86
:1005600000232A46009339464FF6FF7306A804F08D
:1005700000FB804600285BD128460B9C04F0D6FB8C
:10058000844255D84FF0FF34DFF870B1DFF870A126
:100590000DF1120304AA05A906A804F038FB0028EF
:1005A00046DB40F0A280059906A804F07CFB50B918
:1005B0004FF6FF71BDF81200524A32F8023B8B42EF
:1005C00036D09842F9D1BDF81270102F3AD0202FB2
:1005D0006DD0012FDCD1BDF81030202B28D8284653
:1005E000059936AA04F0DCFD044608BB9DF81030DE
:1005F000202B029309D8DAF80030434F0393039B72
:100600001CA89C4236DB06F09EFE4FF0FF34BFE78D
:10061000809BABEB080A9A4528BF9A462246534670
:100620004146284604F0BCFD28B136A806F08BFEF2
:10063000D9F800605CE05246214636A806F088FEF4
:10064000D0447DE7BDF81070202FF1D13B462846FD
:10065000059936AA04F0A4FD0028E9D13A4636A946
:100660000CA804F02EFBDBF800308342E0D14FF001
:1006700001088DE706F063FE00211CA803F07EFA56
:100680007A681CA8126857F8081B06F061FE14A9C6
:100690001CA806F09CFE029A36A914A804F034FEA9
:1006A00018B91CA806F04FFE72E70134A7E7631CD7
:1006B0003FF46EAFDAF80030A342A6DDBDF810308B
:1006C000B3F5807FB4D12846059936AA04F068FDB9
:1006D0000028ADD1E4B23946BDF81030009436AAF6
:1006E0000CA800F0A9F806468FE7B8F1000F9FD0DC
:1006F000304677B0BDE8F08F040000207002002083
:100700000C7D000848800008107D00082DE9F047A6
:1007100089461946464BADF5AE6D1E68DDF890353D
:10072000B3F5807F7ED1202A7CD15CAA03F0DEF96C
:100730000446002876D19DF86F32BC2B72D10DF1A2
:100740009008DF27454601900AA806F0F8FD002131
:100750000AA803F013FA20220DF24F210AA806F08E
:10076000F7FD04220AA80DEB020106F0F1FD02A933
:100770000AA806F02CFE202FBA46A8BF4FF0200A88
:100780009DF8073040460133524602A9A7EB0A07FD
:100790008DF8073004F0C8FD002FD044D4DC0AA83F
:1007A00006F0D1FDAC462946DF225CAB087813F891
:1007B000017B013A80EA070001F8010BF6D12B78A2
:1007C00003F07F032B701CF8017B5FBB0134BE2C50
:1007D000F9D195F8BE30012B24D10AA806F0AFFD5F
:1007E00039460AA803F0CAF9082212490AA806F0F5
:1007F000AFFD494620220AA806F0AAFD20220DF2EC
:100800004F110AA806F0A4FD02A90AA806F0DFFD10
:100810000AA806F098FD20220DF24F2102A804F04C
:1008200050FA064630460DF5AE6DBDE8F08700BFC4
:10083000040000204D8100082DE9F04F1F46A3B0B1
:100840002F4B804604A89DF8B0501E6889469246FA
:1008500006F02EFD0922012104A803F009F9294B15
:1008600003AA53F8354003EBC5035B6802941B6889
:1008700002A81C442146302305F006FE002838D18A
:10088000DDE9023213449C4233D1214606AA02A874
:1008900005F00EFE68BB0DF1200B5A46214602A85A
:1008A00005F006FE054620BB06A806F0AFF9029B40
:1008B00005909C421DD12B462A46CDE9005B06A936
:1008C00004A806F0B2FCA0B904A803F0E9F880B9C6
:1008D00006A806F09BF9059004A806F0F3FC8742F1
:1008E00007D153464A464146009704A8FFF70EFF3A
:1008F000064604A806F0E8FC304623B0BDE8F08FB9
:1009000004000020107D00080B78032B0FD00A4A4A
:10091000400052F820108B420BD0013052F82000DA
:10092000834214BF4FF0FF304FF4407070471846B9
:1009300070474FF440707047187D00080323F0B5EE
:100940000C46002587B08DF80430154B154F53F831
:10095000303001AE8DF80530214616F8010B00F05D
:10096000B7FF50B920681023816802AA103904F03B
:1009700017FC30B1206804F012FC4FF0FF3007B0D4
:10098000F0BD1022394602A804F0BEFC0028F6D0C3
:10099000206804F004FC002DEFD10125DCE700BF46
:1009A000187D00086C8000082DE9F043DFF8E49022
:1009B00087B0064600200D46D9F80040FFF780FDBD
:1009C00004A9C0B200F084FFD8B92946FFF778FD2A
:1009D0002C2405A9C0B204FB056400F079FFA0B186
:1009E0002C20684331180B69049ADF061DD51DB110
:1009F0003046049904F07AFA274B1C68049804F0F6
:100A0000CEFB204607B0BDE8F083059804F011FC4A
:100A10008046059804F0C3FB631EE21C13F8011F17
:100A20004145DDD19342F9D1E1E756F800C01B48BA
:100A3000844529D10889CF68C01925D24989091868
:100A400022D2906881421FD240F60C610B401BD12C
:100A5000CDE9023301934FF4807321460093304671
:100A60000F4BFFF747FD04460E4B1B68A342C5D052
:100A70006DB104980021826804F0BCFB0A4A45214C
:100A80000A4804F07FFBB7E7D9F80040ECE7084AD2
:100A9000F5E700BF04000020000000203DB8F396F9
:100AA0005C380020700200205D810008678100082A
:100AB000558100087FB50D46002104462846CDE942
:100AC000021104F0CEF928B32368194EB34203D1C2
:100AD000204603AA04F02CF9E36AB34204D10121B1
:100AE000204602AA04F024F9DDE90232934288BFCD
:100AF0000393039BAB60039A2946204600F038FB22
:100B00000C4B1A68002A03DD57210B4804F03AFB0E
:100B100004B070BD01A9FFF711FF019805F10801AC
:100B200004F0E7F8AB680198039304F038FBE2E7C0
:100B30003DB8F396E01E00208F8100082DE9F04BB0
:100B40000E46904699460024099FDFF844B0BC4207
:100B500001D300200EE03D1BB5F5806F28BF4FF498
:100B6000806530462B460A4A04EB090104F018FB65
:100B700010B10120BDE8F08B08992B465A4640463B
:100B8000611804F022FB0028F3D12C44DFE700BFFA
:100B900074020020F0B50E460021A24B044603F576
:100BA0000062436203F58053C365026589B008465D
:100BB000FFF786FC04F120010546C0B200F088FE74
:100BC000034620BB0121FFF77BFC04F14C010546E5
:100BD000C0B200F07DFE034618BB032004F15801AB
:100BE00000F076FE0246F0B9204604F0FFF8054614
:100BF000F0B900222046114604F0E2F8054690B311
:100C000000225721884804F0BDFA0123A2E0002207
:100C1000CDE90023452100232A46844804F0B2FA96
:100C2000FEE70122F4E74521814804F0ABFAFEE734
:100C30004FF4807257217F4804F0A4FA01239D42AB
:100C400084F86430D5D194F86430042B8DF81730D3
:100C500000F28380012B00F2878000F09A80FF234E
:100C600084F8643095E0204600F08EF90028CCD05E
:100C700004A804F0EDF80146204604F08CF918B100
:100C80002A4657216C48BEE704A804F0EAF880F031
:100C9000010104AA2046C9B204F092F802460028D5
:100CA000AED104A804F0DDF8054660BB204604A9D7
:100CB000FFF700FF9DF8173084F86430033B012BE9
:100CC00006D8284600F0E8F810B1FF2384F8643015
:100CD0009DF81730023B022B0BD8002000F0C6F81D
:100CE00038B1FF2384F864304521544804F04AFAAF
:100CF000FEE794F86430FF2BF6D000222046114620
:100D000004F05EF881E79DF81770012F17D11046A7
:100D100003F070F8831E022B05460DD83946204695
:100D2000FFF742FE464B1B68984205D0454B1D68B5
:100D3000A84214BF0525012584F8645083E70121EA
:100D40002046FFF731FE3E4B1B68984214BF052337
:100D50009DF8173084F8643075E7052B7FF47FAF7A
:100D6000002000F099F811E0204604A9FFF7A2FE48
:100D700094F86430DA1E012A14D8002000F08CF8B0
:100D800000287FF46CAF002000F070F800287FF49A
:100D900066AF94F86430FF2B07D14521274804F053
:100DA000F1F9FEE7022BF4D1EDE70022012B264DED
:100DB000039217D01146204604F002F890B12D6836
:100DC000102200210DEB020004F0B9FAA06D04F02E
:100DD000E6F9E06C04F0E3F9206A04F0E0F9284653
:100DE00009B0F0BD00212046FFF7DEFD144F3B683F
:100DF0009842E4D12B689842E1D0124B1B6898428C
:100E0000DDD0039B01330393039B012B00D0FEE74E
:100E1000206A03F0ACFE3071236A5B6834603D6881
:100E2000B360CDE77406002089820008BE81000807
:100E30000B82000847820008B5820008DF820008A4
:100E400070020020000000200400002038B5064D8C
:100E500004466C220021284604F071FA21462846F7
:100E6000FFF798FE38BD00BF741E002013B5094B74
:100E700001A913F8300000F02BFD48B9019806F0E5
:100E8000F2FB0446019804F08AF9204602B010BD36
:100E90000124FAE7207D00081FB50F4B01A913F8C4
:100EA000300000F015FDA8B9019802A902F04CFF2E
:100EB000044668B99DF80B30032B03D1019806F066
:100EC000A0FB0446019804F06AF9204604B010BD66
:100ED0000124F7E70124F8E7207D00082DE9F74F0A
:100EE00080468A46164603F0F3FE414681460020BE
:100EF000FFF70AFD071E41DB00252C46AB46AF423B
:100F000006D1BBF1000F35D1002003B0BDE8F08F52
:100F1000DAF868100123404601FB05910DF1070244
:100F200004F03EF900282BDB012240460DF10701B9
:100F300006F002FB38B1BBF1000F02D0002C08BF55
:100F40002C460135DBE7BBF1000F10D0002CF8D0A8
:100F500045210C4804F016F90323B4FBF3F35A1CA3
:100F600003EB4303E41A013432603471CCE74FF0F1
:100F7000010BE6E7002C08BF3C46EDE70720C4E77D
:100F80000120C2E7EB8200082DE9F843D0F828E001
:100F9000D0F854C0BEF5807F02D8BCF5807F06D95A
:100FA0005721284804F0EEF80020BDE8F883836D4F
:100FB000D3F8088000231A4619461D461E461C46D3
:100FC00099468E450AD8944508D88E4503D1944554
:100FD00001D1AE4234D057211B48E3E74C4515D12F
:100FE000476A07EBC1077F68013104EB0709076D0A
:100FF00007EBC2077F6801323C44A145E1D1C845F7
:101000004E444D441AD257211048CBE70CD9476AB9
:10101000022B07EBC1077F68B94402D157210C4866
:10102000C0E701230131E8E7076D012B07EBC20799
:101030007F683C44F2D002230132DEE70023BEE7A2
:101040000120B2E70E830008AC8300087483000817
:101050003D83000870B588B006A9012006F0DEFACD
:10106000032004A906F0DAFA9DF81820012A51D0CD
:10107000324B3349032A08BF0B469DF81B204921F8
:1010800002929DF81A202F4801929DF81920009293
:101090002D4A04F077F89DF81020012A3CD0274B08
:1010A0002749032A08BF0B469DF81320274C0292BC
:1010B0009DF81220492101929DF8112021480092AB
:1010C000234A04F05FF8002526469DF81810207882
:1010D00006F024FA30B39DF81010607806F01EFA7E
:1010E00000B3A378042B03D09DF81A209A4219D19B
:1010F00006EB8506F4788CB1012C11D0154A164BFD
:10110000022C18BF1A461548492104F03BF8204626
:1011100008B070BD124BB0E7114BC5E7114AF2E7BA
:10112000114AF0E70135042D04F10404CDD10F4834
:10113000492104F027F80020EAE700BFDA8300081D
:10114000E38300082384000815840008C484000891
:101150006484000808840008F68300086C84000892
:10116000DE830008F1830008E98300088184000819
:101170002DE9F04F1646054689B093480C464921A3
:1011800004F000F83146284603F048FF4FF0000A0B
:101190008146B9F1000F02DA09B0BDE8F08FAB6DFE
:1011A00099686B6A03EBC90257688F4200F2F780B7
:1011B000181DB9F1010980F0EA802268013A9245D0
:1011C000C0F0FF8009F1010253F832201B68A86EBD
:1011D000A2EB030803F077FDAB6A6A6A013B02EBFE
:1011E000C3014E68B04207D902F1040C013B5CF820
:1011F00033100E44B042F9D852F83330126808EB7D
:1012000007019B1A9942236894BF3E463E1A012B60
:1012100040F0C780F31B18BF0123A37103A901206D
:1012200000F056FB04A9022000F052FB032005A9A0
:1012300000F04EFB2379012B40F0B580059800218A
:10124000826803F051FE2368012B17D122462846FD
:10125000059903F081FE94F806B0BBF1000F0DD1A3
:101260000399284603F042FE22460399284603F0DC
:1012700073FE05985946826803F036FEDDE90412D4
:1012800000232846009301964346FFF757FC21466A
:10129000284603F0F3FD0223237118B14B4A13686B
:1012A000013313603A464146049803F01DFEDDE920
:1012B000031243462846CDE90086FFF73FFC23682A
:1012C000012B05D1A3791BB92846049903F00EFE22
:1012D0002146284603F0D2FD0323237118B13B4A6F
:1012E0001368013313603A464146039803F0FCFD4E
:1012F00000232846CDE90086039A0599FFF71EFCD6
:10130000A37963B3059803F0E3FCAA6E4644520048
:10131000034601922846039A05990096FFF70EFCB2
:1013200018B12A4A136801331360059806A902F020
:101330000BFD9DF81B30012B02D1039806F061F9DB
:101340009DF81910012903D00022039806F07AF9BC
:10135000A168039803F0DBFC039802F0D5FC00239E
:10136000A6792146A371284603F088FD236801333E
:1013700023600123237118B1144A136801331360E9
:10138000B6B105980021826803F0AEFD10E050F878
:1013900039203A449142FFF410AF174609E700277D
:1013A0000BE7002339E7022B3FF47CAF032B9AD0E5
:1013B000039803F0F4FE049803F0F1FE059803F09F
:1013C000EEFE0AF1010AE4E698840008E01E00201F
:1013D000BFF36F8F72B64FF0FF32114BC3F880200E
:1013E000C3F88420C3F88820C3F88C20C3F8902069
:1013F000C3F89420C3F89820C3F89C20C3F8802138
:10140000C3F88421C3F88821C3F88C21C3F8902144
:10141000C3F89421C3F89821C3F89C21704700BFFA
:1014200000E100E0014B1B68184700BF08000020E6
:10143000014B1860704700BF0800002007B50B463D
:10144000002102460091034800F006F803B05DF861
:1014500004FB00BF251400082DE9F04F82464FF031
:1014600000098DB01D46531E01910393039B5878CC
:101470005C1C252819D100204FF0FF381E46444639
:1014800003460236029031780396392955D81F2930
:1014900014D8002900F0EF8101992520D047019947
:1014A0003078D04709F10209E0E7002800F0E38135
:1014B0000199D04709F101090394D7E7A1F120026E
:1014C000192AE9D801A757F822F000BF35150008FE
:1014D000991400089914000835150008991400089B
:1014E000B51500089914000899140008991400080B
:1014F0009914000801160008351500089914000811
:1015000015160008C115000899140008CF15000829
:10151000EF150008EF150008EF150008EF1500089B
:10152000EF150008EF150008EF150008EF1500088B
:10153000EF15000808460136A5E7582900F0EB80B2
:10154000A1F16302D7B2172FA6D8172AA4D801A7F2
:1015500057F822F0BD1700083B1600089914000840
:1015600099140008991400081B1600083B1600087F
:1015700099140008991400081B1600089914000813
:101580009914000899140008F1160008991400082D
:101590009914000891170008991400083B160008D8
:1015A0009914000899140008F1160008991400080D
:1015B0001B16000825200199D04709F1010955E7BC
:1015C000029A4FF0000802F0FE020292B3E7002CEC
:1015D0000DDAB8F1000F0DDA029A002A00F043810B
:1015E0000A2224EAE47402FB0414303CA3E7B8F1B5
:1015F000000FF5DB0A2202FB0812A2F130089AE77D
:10160000B8F1000F55F8042B80F22F81002A80F2E8
:101610002E815442022202928DE7682903D1682B61
:1016200006D1482387E76C2902D16C2B00F0218179
:10163000002B7FF431AF0B467DE77A2B06D175295D
:1016400055F8046B14D14FF0000B0CE06C2BF6D066
:101650004C2BF4D1073525F00703752903F1080554
:10166000D3E9006B06D120283BD1854F013C09E02E
:101670004FEAE67BBBF1000FF5DA7642814F6BEB68
:101680004B0B013C0DF12D030593002304933046D1
:1016900059460A220023FEF74BFD059BB446303223
:1016A00003F8012D5A460593049BBCF10A0F8B46A3
:1016B00072F1000203F1FF3106460491E7D2C3F153
:1016C000010B30330DEB0306B8F1000FA6F1040651
:1016D0006DDA029BD9077DD4A8EB0B03A4EB0B04B6
:1016E00013E02B280ABF684F684F04F1FF34C9E7A5
:1016F00070290FD155F8042B0023FAB96FF00403B9
:101700004FF0050B614F624E053C029A920770D470
:10171000A04666E078216C2B03D1002355F8042BFA
:1017200008E04C2BF9D1073525F007031D465B680F
:1017300055F8082B232825D1880621D5554F023C82
:10174000002601F06001A1F1390B0DF12D0E02F020
:101750000F01092988BF594430310EF8011D102AA4
:101760004FEA121141EA03714FEA131C73F10003AF
:1017700006F1FF3008D2C6F1010B06F13003A1E7F4
:10178000454FDCE7414FDBE706460A466346DEE7A6
:1017900055F8046B304603F0B0FDB8F1000F8346F6
:1017A00002DB4045A8BFC3464FF00008374FA8EB07
:1017B0000B03002B92DDA4EB0804A6E755F8043BCD
:1017C0004FF0010B8DF81830304F4FF0FF33013CD4
:1017D00006AE9AE7A046EAE7029320200199D04797
:1017E000029BB8F10108F7D524EAE472013C914468
:1017F000A41AB84606E0049302920199D047029ACF
:10180000049B9046424612F8010B0028F3D11A4679
:10181000013A15D5002BACBFC7EB03077F425B46EF
:10182000013B15D5BBF1000FA8BF5F4426464F44CE
:10183000013E14D5002CA8BF3F1907EB080915E697
:101840000493029230200199D047049B029ADFE76B
:101850000293019916F8010BD047029BE0E701992A
:101860002020D047E4E70122D5E6904663E61446FF
:1018700061E64C235FE648460DB0BDE8F08F00BF3F
:10188000E4850008E2850008E6850008EA82000891
:10189000EE850008E8850008EB850008034A002073
:1018A000536823F002035360704700BF002004E038
:1018B000044A136843F010031360034B034A1A6091
:1018C000704700BF002002409C00002000127A00F8
:1018D00070B5104B0D461C68B4B10F4B196800234E
:1018E0008B4202DB6FF0010070BD224612F8106BD4
:1018F000864202D014460133F2E7E06805F0CAFEE2
:1019000028B100202C60EFE76FF00C00ECE76FF0DF
:101910001200E9E70C0000202C7D000810B5436898
:1019200088B0029383680C46CDE9033200230A682D
:10193000C068CDE90623054901AA059303F03EFEE0
:10194000079808B9059B236008B010BD41520008F4
:1019500008B5044803F0FEFBBDE80840024803F068
:10196000F9BB00BFF48500082A86000808B5034BC0
:101970001B689847BDE8084000F006B8100000203A
:1019800030BFFFF7FDBF00BF054B5A699B689A4205
:101990001FBF044A536843F080535360704700BF31
:1019A0002C20002000ED00E0134B9A6A12F0007F1B
:1019B0009A6A14BF1E201D2012F0807F9A6A18BFF9
:1019C0001F2012F4002F9A6A18BF212012F4802FD2
:1019D0009A6A18BF222012F4003F9A6A18BF232087
:1019E00012F4803F9A6A18BF24206FEA02426FEA1D
:1019F00012429A62704700BF00ED00E010B5164B2E
:101A00009A6A9C6A12F4805F14BF1722162214F49B
:101A1000006F9C6A18BF1822A40509D59A6B9A6AB0
:101A2000120404D518B19A6A22F400429A6219226B
:101A3000094B986A10F4806F986A18BF1A2210F444
:101A4000807F986A40F47F4098624FF000030CBF9B
:101A500010461B200B7010BD00ED00E010B5154BBB
:101A60000246986A9C6A10F0100F14BF11201020D3
:101A700014F0080F9C6A18BF1220A40709D5586BF0
:101A8000986A000604D51AB19A6A22F080029A6216
:101A90001320084B9A6A12F0010F9A6A18BF14209B
:101AA000D20658BF9A6A9A6A42F0FF029A620023ED
:101AB0000B7010BD00ED00E070B5444B06465B684E
:101AC00000258AB0C3F3080385F31188BFF36F8F35
:101AD00002F07F40B0F17F4F11D102F00C000828D6
:101AE0000DD010074CBF0E4601250022033B8DF898
:101AF0000720032B05D8DFE803F01E5C60592E4653
:101B0000F3E700249DF807309BB92022314602A854
:101B100003F00AFC099B002D53D0C3F3080222B93D
:101B20006FEA53236FEA43230993204602A903F087
:101B3000C2FB0AB070BD254BDA6A9107E1D4DA6ABC
:101B4000002ADEDBDA6A5200DBD55A69B16942F459
:101B500080725A61BFF34F8FBFF36F8F5A6931F8AC
:101B6000021C22F480725A61BFF34F8FBFF36F8F54
:101B70004DF60272914209D09A6AD2B242B1012066
:101B80000DF10701FFF76AFF0446BBE73468B9E7C8
:101B90009A6A12F47F4F05D001200DF10701FFF77B
:101BA0002DFFF1E79B6AB3F5803FAAD3FFF7FCFE58
:101BB000EAE700200DF10701E4E700200DF107013D
:101BC000EDE723F4FF7323F00103ADE700ED00E040
:101BD000044B5A6942F010025A615A6922F0080215
:101BE0005A61704700ED00E0EFF30880EFF30981E0
:101BF00001B57246FFF760FF01BD00BF102080F302
:101C0000118808484FF40061401880F30988EFF309
:101C100014800221084380F31488BFF36F8F00F013
:101C200073F8000060390020084B9B6883420BD199
:101C3000EFF3058343B1064B5A6842F080525A6075
:101C40005A6A22F400425A6202F038BD2C20002069
:101C500000ED00E00F498A684FF030001044EFF3C8
:101C6000098C80E8F01F102080F31288BFF36F8F7B
:101C7000094F4FF000664A698A603E60906E00230B
:101C8000936680F3118802F1300090E8F01F8CF326
:101C9000098870472C20002004ED00E01EF0040F9E
:101CA0000CBFEFF30880EFF30980816911F8021C83
:101CB0000229FFD001B5724603F003FB01BD00BF4E
:101CC00040B2002807DB01234109034A00F01F004E
:101CD000834042F82130704700E100E040B2002824
:101CE00001F10101ACBF00F16040064B4FEA011168
:101CF000C9B2ABBF00F5614000F00F0080F80013DF
:101D00001954704714ED00E008B5094B094A23F057
:101D1000404323F07F039360BFF34F8FBFF36F8F78
:101D200002F07EF902F0ECFD00F040F802F0B8F9A4
:101D30000000000800ED00E042F8203C009B0B4949
:101D400042F81C3C019B21F0010142F8183C029B27
:101D500042F8081C42F8143C4FF0807342F8043CEF
:101D60000023203A02658366704700BF6F51000868
:101D7000084B00B50E46154698602C4686F3098838
:101D80000020054B98472046002100220023034CE9
:101D9000204700BF2C200020D35200086F510008BC
:101DA0001022014B1A61704700ED00E00023102162
:101DB0000348C21801333C2B82F80013F9D1704755
:101DC00000E100E008B5EFF30583064A103B02EBA3
:101DD000C30152F8330049688847BDE80840FFF75F
:101DE000D3BD00BF607A000808B5024803F0B2F91D
:101DF000FEE700BF60860008014B1860704700BF17
:101E0000140000202DE9F041054600244FF00108A0
:101E10000E4E0F4F2A7871691319DBB208FA03F3DB
:101E200001EA03008B4309D1E3B21344706157F810
:101E300033201AB107EBC303596890476A7801341D
:101E4000E3B29A42E6D2BDE8F08100BF000401404F
:101E5000E41E0020044B184400230133994200F88B
:101E6000012BFADC704700BFB8000020034660B1C8
:101E7000B0FA80F2C2F11F02D2B205498856054A73
:101E800011680B431360FFF71BBFFF22F5E700BF8C
:101E9000B800002000040140024A136823EA00034E
:101EA0001360704700040140032921D8DFE801F0E6
:101EB000020C10190F4B9A6822EA00029A60DA6845
:101EC00022EA0002DA6070470A4B9A680243F5E79B
:101ED000084BDA680243DA609A6822EA00029A60E4
:101EE0007047044B9A6802439A60DA681043D860DE
:101EF000704700BF0004014030B5B0B1B0FA80F3C4
:101F0000C3F11F03DBB20B4850F833408C4204D1BD
:101F100000EBC3056D68954205D044B940F8331015
:101F200000EBC3004260002030BDFF23EBE76FF001
:101F30000F00F9E7E41E002060B1B0FA80F3C3F1AE
:101F40001F03DBB20021044A42F8331002EBC30244
:101F500051607047FF23F5E7E41E00200F2300F0D7
:101F6000030204329200934043EA9000C3B2064A4F
:101F7000023352F82320030C93FAA3F3B3FA83F34A
:101F800002EA1040D84070470000014038B51F4BAE
:101F90000D4618680B881446C3F30B03182B19D889
:101FA00073B3013B172B2BD8DFE803F00D0C1E0C8D
:101FB000212A182A2A2A2A2A2A2A2A2A2A2A2A0DB9
:101FC0002A2A2A0D002020602B68B3F5805F10D2EA
:101FD000002038BD1C2B13D14008F4E703F0B6FAFB
:101FE00088B103F0B3FAEEE749F64040EBE7084862
:101FF000E9E7C3F313330133B0FBF3F02060E7E705
:102000006FF08500E5E76FF00400E2E79C00002038
:10201000001BB700F8B53B4F03F09AFA384603F0BF
:1020200094FA00F0DFFF384C384A63681578C3F340
:102030000313D35C47FA05F520FA03F6AE4202D249
:10204000284600F0FBFF236823F4802323602368E5
:1020500043F48033236023689A03FCD5636A43F01A
:1020600001036362636A9B07FCD5636803F00C039A
:10207000082B15D12368980706D4236843F0010381
:10208000236023689907FCD5636823F0030363602A
:10209000636813F00C0FFBD1636823F0F0036360F7
:1020A000236823F08073236023689A01FCD400F036
:1020B00031F8236843F08073236023689B01FCD5CB
:1020C000636823F0F0036360636823F0030343F065
:1020D00002036360636803F00C03082BFAD1AE427D
:1020E00002D3284600F0AAFF094B00201F60636856
:1020F00023F4E06343F480636360636823F4605314
:102100006360F8BD00A24A04001002406087000826
:102110009C000020054A536823F47C1343F4881381
:102120005360536823F480035360704700100240EB
:1021300008B5074805F0AEFA38B10648FFF75CFE6F
:102140000448FFF775F9002008BD6FF01200FBE7A7
:10215000107A0008592100080A2838B50446074DAE
:1021600004D1AB680D2128465B689847AB680348EB
:102170005B68E1B29847204638BD00BF107A00087E
:1021800000487047AC7D00082DE9F34743680F1EF7
:1021900005461646D3F818907DDBBB184B457AD818
:1021A00047EA0204C4F30B04002C74D1006903F065
:1021B0003FFA2146284603F088FA4FF0FF3A0446DA
:1021C000002E45D10121284603F07FFA002C08BFDC
:1021D0000446286903F02AFA204602B0BDE8F087D9
:1021E00080462E4B5A7882B10AFA02F137EA010191
:1021F0000BD101219140B14207D8B8F1000F1ED098
:1022000098F80110914238BF98460134042C03F12C
:102210000203E7D1B8F1000F13D00023812298F810
:1022200000102846CDE900333B4603F007FA0123AE
:1022300098F80120044693401F44F61A21E098467E
:10224000E3E76FF015040121284603F03EFAC0E7EA
:10225000002CF8D12346CDE90044802206212846EF
:1022600003F0ECF904460028EDD1B145B8D103469E
:10227000CDE900008022C721284603F0DFF90026BF
:102280000446002CDFD14FF4FA720023284603F0F5
:102290004AFA044694E76FF015049DE7AE860008FD
:1022A00000487047B47D000870B50446124B0669BB
:1022B0001A6842F001021A601A689207FCD50F4DA5
:1022C000284605F0E7F980B1AB6828461B68311D48
:1022D000984768B920690C300122114605F018FAB8
:1022E00003F0EAFB00EAE07070BD6FF01200FBE75C
:1022F0006FF00400F8E700BF0010024048790008C2
:1023000070B5036906461D6849B103F0D7FB044662
:1023100050B130690C3001F027FF204670BD2B69A9
:102320001B0606D40024F8E72B6943F080032B61D9
:10233000F8E7034B6B6003F188336B60F2E700BF93
:1023400023016745064B186828B94FF4807C4FF489
:102350000060C3E900C00B6001231360704700BF39
:10236000781F00202DE9F843D0F804801746D0F8F4
:102370001090D8F808000D461E4603F03DF8B7F55A
:10238000001F044616D12846D8F80840FFF7E6FD9E
:1023900084420CD1294603F02FF80446FFF77CFD58
:1023A0002046FFF7C9FD00212046FFF77DFD0020F4
:1023B000BDE8F883B7F5800F20D0B6F1806F19D053
:1023C000B6F1C06F18D0B6F1007F1AD102264A4686
:1023D00020460F49FFF790FDB0B92846D8F80810FD
:1023E00003F00DF820463146FFF75EFD2046FFF76B
:1023F0003DFDDCE70126EAE70326E8E76FF085000C
:10240000D6E76FF01500D3E76FF00F00D0E700BFFD
:10241000DB5D000838B5036904465860084D28465E
:1024200005F038F940B16168AB6828461B680C318B
:10243000984700EAE07038BD6FF01200FBE700BF7C
:102440004879000800222DE9F347134604468A42E2
:1024500011D22BB954F83230C3F389230132F6E795
:1024600054F83200C0F389200028F7D098425ED19A
:1024700001329142F4D8E3B12E4A13F0010F906972
:1024800040F00100906192694FEA132002F00102CE
:102490000192019AC3F3440200FA02F0264A09BFEE
:1024A0005368D369034343F0E06316BF03435360AB
:1024B000D361224F04EBC106A64201D1002011E0F6
:1024C000D4E9002512F003090FD145F04105C2F30C
:1024D000870AC2F3831257F82280B8F1000F15D192
:1024E0006FF0120002B0BDE8F087B9F1020FEED034
:1024F000B9F1010F07D115F4C07F0CBF45F00205FB
:1025000045F00405E3E745F00105E0E7404605F046
:10251000C1F80028E4D04B462A4640460AF00F0195
:1025200003F03FFD002804F10804C5DADAE76FF094
:102530001500D7E70010024000000140487E000867
:10254000F8B50C46036941685E682379012B34D0E5
:102550009A1E55425541AD026279022A96BF354F07
:102560004FF4005C37F812C0A279042A28D01BB1BE
:10257000D31E5A425A411303E279012A0A680CBF5A
:102580004FF440770027A642D1681CD121F4B05106
:1025900029430B43D360136923F4405343EA0C03EC
:1025A000136143681A68536923F440733B435361D2
:1025B0003168BDE8F84003F05DBD4FF4C065CBE77E
:1025C0004FF48053D8E701F4C0618D421FBFD1683A
:1025D00021F4C0612943D160426811680A6902F49C
:1025E000405294451FBF0A6922F4405242EA0C024D
:1025F0000A6142681168CA6802F4805293421FBFA0
:10260000CA6822F480521343CB6043681A68536946
:1026100003F440739F421FBF536923F440733B434D
:10262000536121683368994203D003F023FD236886
:102630003360F8BD668000082DE9F04188464368A4
:1026400098F806501E6803695F680B794979012B79
:1026500037D102294DD9042D48D0EA1E54425441A5
:102660004FF4C062240303238B423FD1002C00F0BF
:102670008380002A14BF03220422AA4236D198F88C
:10268000073063B1012B31D13E4B9E4207D0A3F5F9
:1026900074439E4203D003F580639E4226D1F368C3
:1026A000414623F40053F360FFF74AFFF36843F415
:1026B0000053F36098E8030087E803000020BDE8BA
:1026C000F081022B0AD102292CD9042D0ED0EB1E49
:1026D0005C425C414FF480622403C4E702290A464D
:1026E00028D9042D37D06BBB0329C6D06FF08500E5
:1026F000E5E7254A042D32F811C0F7D04FF4C06247
:10270000033B032DDBB221D0012BEFD90024BCF514
:10271000805F2DD0BCF5405F2CD0BCF1000FA2D162
:102720000123A1E7184A042D32F811C0DED04FF47E
:102730008062E5E7144A042D32F811C011D0A3B12C
:102740000022DDE700224FF4005CD9E7012BCDD950
:102750004FF48054DBE7002BC8D14FF480541A4665
:1027600081E7002BC2D11A46F2E71A461C46CEE793
:10277000002379E7022377E7002A14BF022203220D
:102780007BE700BF0038014066800008F7B50546CA
:10279000446806692648306004F07CFF18B96FF081
:1027A000120003B0F0BD3068E16883681B68984789
:1027B0000028F6DB0021206A01AA03F007FC0028AC
:1027C000EFDB019B002219791868FFF73BFE002818
:1027D000E7DB6E682B6934685F68E36823F40053B5
:1027E000E360706804F056FF0028D8D0D6E90101F4
:1027F0008368DB6803B1984704F10C0353E8003F9A
:1028000043F00C0304F10C0141E80032002AF3D13B
:1028100039462846FFF794FE337D1BB1636943F0C8
:1028200008036361E368002043F40053E360B8E702
:10283000487900082DE9F341056946682D4C20468A
:1028400004F028FF002852D0A36820461B68F168D6
:102850009847002848DB0021706801AA03F0B6FB06
:10286000002841DB019B002219791868FFF7EAFD77
:10287000002839DB0126AC680834D5E9023203EBC5
:10288000C203A4F10802934204D8284603F09AFD3B
:10289000002029E054F8080C04F0FCFE38B354F88A
:1028A000080C14F8041C34F8023CD0F810C0DA0705
:1028B000DCF8007054BF43F4B01383F4D01323F456
:1028C000801206FA01FEDB07D0F808804CBF4EEA02
:1028D000070727EA0E07CCF80070D8F800309847B1
:1028E000002804F10804C8DA02B0BDE8F0816FF0F6
:1028F0001200F9E7487900082DE9F04FD0F804A05C
:1029000080460E461F4691460469DAF800B08DB045
:1029100012B9002B00F0D280B388990400F1B08086
:102920004FF0FF324FF0FF3304F1100001F050FC84
:102930006660D8F81030DFF88CC204AD0193BCE8B3
:102940000F000FC59CE80F0085E80F00019AD8F82A
:1029500004E01268DEF800509642B38840F09C8094
:102960001A0509D52B6823F44443B9F1000F00F090
:10297000908043F440432B60B3882046C3F3451353
:10298000082B0CBF012302233A46494603F04DFCB5
:10299000DBF80060DBF8003006F4444643F0400307
:1029A000CBF80030D8F81050286848B183683BB1A4
:1029B0000121083003F0F2FC2B68186904F05BFE7B
:1029C0002368DAF800509B88D90700F136812F6818
:1029D0009AF8103007F44447002B00F01681B7F541
:1029E000404F40F00181AB689A0700F10981DAF8A5
:1029F00000309A6812F0700F00F0AD819A685606A8
:102A000005D5DA680392039A9B680393039B6FF0E2
:102A10000407D8F80430D8F810801D682B6803F438
:102A20008273B3F5827F14D1AB681806FCD4D8F852
:102A3000003073B19A6862B1998811F4805608D158
:102A4000186904F018FED8F800003146083003F089
:102A5000A5FCAB68990606D5AB680493049B2B686C
:102A600023F040032B60D8F800309B88DA041BD495
:102A70002B6823F040032B602B685B06FCD413E02B
:102A8000A369002B7FF44CAF63689E427FF448AF8C
:102A90004FE743F400436EE7C3F34512082A11D011
:102AA000102A0FD06FF0850723689B8813F400531A
:102AB00004D1636004F1100001F056FB38460DB0FC
:102AC000BDE8F08F1B04EDD43F48DEF80C1083689E
:102AD000DB6813B96FF00407E6E703AA98470028FC
:102AE000F8DB0123039A316822FA03F0884205D902
:102AF0000133092BF8D16FF01507D5E72A680CA927
:102B000022F040022A602A6801EB830353F8243C38
:102B100022F0380213432B60B388980703D42B6844
:102B200023F0020302E02B6843F002032B60B3881A
:102B300013F0040F2B6814BF43F0010323F00103CB
:102B40002B60B38813F4006F2B6823F4444304D044
:102B5000B9F1000F32D043F440432B60B38813F037
:102B6000100F2B6814BF43F0800323F080032B6009
:102B70002B6823F400532B60B3683BB32B6843F4FA
:102B800000732B606B6823F004036B60B38813F051
:102B9000010F2B6814BF23F4827343F482732B60FC
:102BA000B388C3F34513082B2B680CBF23F40063D1
:102BB00043F400632B60019B1E60DDE643F4004399
:102BC000CBE700BFE47C000848790008B38813F025
:102BD000010F2B6823F40073D3D143F480232B60BF
:102BE0006B6843F00403D0E7AB68DB0703D52146ED
:102BF000284603F091FBB7F5004F7FF4F4AEF6E6FC
:102C00002146284603F040FBF1E6B7F5004F08D116
:102C1000DAF800008368D907FCD5214603F07CFB75
:102C2000E5E6AB689807FCD52146284603F02CFB67
:102C3000B7F5404F3FF4DBAEEAE7AA68920767D5E5
:102C4000A26C002A64D0C3F34513082B626C4AD1EE
:102C500013782B73A36C9BB1013BA364002B3CD175
:102C6000636B08336363A36B013BA363012304F12C
:102C7000480204F1380104F1340003F0C0FA606442
:102C8000AB68DF077FF5B3AEE36C002B3FF4AFAE6C
:102C9000226D002A3FF4ABAE22689288C2F345123F
:102CA000082A41D12A7B1A70236D002B3FF49FAE76
:102CB000013B2365002B30D1E36B0833E363236CC6
:102CC000013B2364012304F1500204F1400104F1AB
:102CD0003C0003F094FAE06489E6636C002BCFD0EB
:102CE00001336364CCE71388AB81A36C002BC7D09E
:102CF000013BA3643BB9636B08336363A36B013B84
:102D0000A3630223B3E7636C002BB9D00233E8E777
:102D10006B6823F080036B60B2E7E36C002B3FF439
:102D200066AE0133E36462E6EA681A80236D002B25
:102D30003FF45DAE013B23653BB9E36B0833E363CE
:102D4000236C013B23640223BDE7E36C002B3FF4BB
:102D50004EAE0233E6E7B6F5404F18D1A26C92B9F9
:102D6000226D82B19A681506FCD41A6822F04002DE
:102D70001A601A6822F4444242F400421A601A6847
:102D800042F040021A60DBF8006006F44446A36C8F
:102D9000002B7FF415AE276D002F7FF411AE38E6BF
:102DA0004FF0E02310B50F499C691A6908689B69C8
:102DB0000D4902F4803234B993B903464AB90A681E
:102DC0001044C01A10BD002B08BF03460AB9A34225
:102DD000F5D90A6802440A604FF0E0221269EEE772
:102DE0000446F3E7102000200C20002010220A4B9C
:102DF000002083F823204FF4E152084B1A60084B5F
:102E000041F61F4218604FF0E0235A6198611A6939
:102E100042F007021A61704700ED00E01020002028
:102E20000C200020684620F007018D4619B5FFF7F9
:102E3000B7FF1149114B0868D3E90042001942F16C
:102E40000002C3E9000200230B604FF4E1530C4A77
:102E5000D2E90041001BB0FBF3F043431B1941F1E1
:102E60000001C2E9003101F00BFEFEF78DFDBDE867
:102E700019408546704700BF0C200020F00000205C
:102E8000E80000202DE9F041DFF8E08099B1421C14
:102E90000BD14FF0E022136923F0010313614FF0CF
:102EA0007F43C8F80030BDE8F081D8F80060012801
:102EB00007DC00270BE0431CD8F80060F7D140F690
:102EC000191040F61A139842A8BF1846471EEFF390
:102ED0001185102383F31288BFF36F8FFFF760FF14
:102EE0004FF0E023224C9969D4E9002380184FF079
:102EF000000243F10003C4E900031E4B1A601E4B9D
:102F00001A68831A2ED44FF4E15C0CFB073303F5E7
:102F1000E0531F33B3FBFCF7131A0CFB0733B3F575
:102F2000806F38BF4FF48063144A934228BF134622
:102F30004FF0E022C8F80030013B90695361002354
:102F400081429361A1EB000338BF9B19D4E90012C1
:102F50005B1842F10002C4E9003285F31188BFF327
:102F60006F8FA0E74FF48063E2E700BF10200020DE
:102F7000F00000200C200020E800002020DFFF00EF
:102F800038B5EFF31185102383F31288BFF36F8FE9
:102F9000084B1C68084B1B68E41AFFF701FF85F318
:102FA0001188BFF36F8F4FF4E1532044B0FBF3F06F
:102FB00038BD00BFF0000020E800002038B5EFF376
:102FC0001185102383F31288BFF36F8F044B1C68A5
:102FD000FFF7E6FE85F31188BFF36F8F204438BDFD
:102FE000F00000200F4A536803F00C01042914D0AC
:102FF000082914D10C48C3F38341DB03405C09D595
:1030000053680A4AC3F340435043094AD35CB0FBB8
:10301000F3F07047074B5843704704487047064821
:10302000704700BF0010024072870008001BB70005
:103030007087000800093D0000127A00D8B10F4BDC
:10304000984216D80E4B984294BF002001200D4A9A
:10305000136823F0070303431360136803F00703A7
:1030600098421CBF136803F00703C01A18BF012061
:1030700070470220EBE70120704700BF006CDC02C4
:1030800000366E0100200240044B1B685840430884
:103090005B4240421843C017704700BF1420002015
:1030A0008842F0B504D00025084F0438AA4200D168
:1030B000F0BD3E6850F8044F5E4024EA060451F823
:1030C000256001351E4034430460EFE714200020E2
:1030D0002DE9F04F8DB01D46189B8346B3F12A3F72
:1030E0008A46179F1A9E059240F08D8039461698A1
:1030F00003F0F1F9012838BF0120470900F01F044F
:103100004FF001097B01502B34BF4B4603230A9338
:1031100009FA03F30B930A9B059805FA03F306EBF0
:103120008303069303EB8503079303F0ACFB4FEA9D
:103130008508424600210890304602F000F9079BBE
:10314000C6F800900393089B3146CDE90153059BD7
:103150003046199A009306EB08092B4603F0A4FBAE
:1031600051464246484602F0DFF802234946099399
:103170000B9B099A934248D142463146584602F089
:10318000D3F84FF00009CA46079B5A460393089BA1
:103190005946CDE90153059B584600932B4603F051
:1031A00083FB002C47D11F24013F169B0AF1010A23
:1031B00053F82730E34003F0010343EA49090A9B2F
:1031C000534503D0002CDFD1002FDDD1189BB3F184
:1031D0002A3F32D1424609FB0861069802F0A4F862
:1031E000079B59460393089B5846CDE90153059B1D
:1031F000069A00932B4603F057FB002CC1D1BFB9B0
:103200000DB0BDE8F08F00247AE7079B01EB080AB8
:103210000393089B4A46CDE90153059B5046009312
:103220002B4603F041FB099B5146013309939FE76D
:10323000A146A246A8E7013CB7E731464FF0000A95
:103240000A4B2A4618681B68584080EA090080EA41
:103250000A00FFF719FFC3430698FFF721FF099BF8
:103260000AF1010A53454144EAD1B9E7142000208C
:10327000054B01311B680132434022EA030208403A
:103280000243501E00B27047142000202DE9F04F79
:10329000834699B00F46184600211646039303F063
:1032A00074FD002800F0898100240125774B304609
:1032B0001493039915ABCDE90B45CDE90D45CDE947
:1032C0000F45CDE91145139303F0E8FCA04228DA3D
:1032D000BBF1000F05D1E7B90024204619B0BDE8C5
:1032E000F08F2146584603F061FC04460028F2D0D6
:1032F0000BA803F0A8FB0DA803F0A5FB0FA803F093
:10330000A2FB11A803F09FFB0C2115A800F032FBD3
:10331000E3E73146384603F014FC04460028E7D1C1
:10332000DAE731460BA803F00CFC04460028DFD195
:1033300003990DA803F005FC04460028D8D1F188B4
:103340000FA80231ADF83850ADF8305003F089FBCA
:1033500004460028CCD101460FA803F027FC044600
:103360000028C5D1F18811A8023103F07AFB044688
:103370000028BDD10DA803F045FC00F01F001F2858
:1033800072D0C0F11F0319460BA8019303F060FC33
:1033900004460028ACD101990DA803F059FC04465D
:1033A0000028A5D1BDF83250BDF83A800DA8A5EB94
:1033B000080A4FEA4A19494603F04AFC0446002825
:1033C00096D14FEA8A0A0DA90BA803F096FC0028B3
:1033D0004CDA49460DA803F058FC0446002887D172
:1033E00008F1FF3305939B0005F1FF3A069305F1C1
:1033F000804508F18043023B013D9B00A5EB080599
:103400000893AB000293059B9A4541D8BBF1000F8E
:103410000CD058460FA903F094FB002840F0C98057
:10342000039AB38892885343ABF80430002F3FF4DB
:103430005FAF01990BA803F028FC002840F0B98089
:10344000B3880BA93846ADF8303003F07AFB01465B
:10345000002840F0B080384603F097FC00287FF445
:1034600047AF0123BB8043E701949BE70F9A0BA969
:1034700052F80A300846013342F80A300DAA03F028
:1034800069FD044600289ED032E700BF010003001A
:103490000D9B069A04931344DDF82C900793049B2C
:1034A0004FEA8A089A5859F82A10A8F104030F9D88
:1034B0000993029B91421D4476D2A8F10400002397
:1034C00059F80000FCF734FE002914BF4FF0FF3319
:1034D0000346BAF1010F2B600EBF002309EB08036E
:1034E00053F8083C1593A8F1040359F803301693D8
:1034F00059F80830DDF8108017932B6801332B60E2
:10350000089B98442B680021013B2B6011A803F015
:103510004DFB00284DD1059B002B48D0D8F800204A
:10352000119B11A91A60079A084612685A602A6806
:1035300003F014FD00283CD113A911A803F0DDFB12
:103540000028DFDC2A680DA911A803F007FD80BB65
:10355000029B11A84FEAC308414603F079FB40BB28
:103560000BA9084611AA03F0F5FC014618BB0BA8ED
:1035700003F00BFC002812DA0DA911A803F0E1FA00
:10358000B8B9414611A803F063FB90B90BA90846EE
:1035900011AA03F0DCFC60B92B68013B2B60029B95
:1035A0000AF1FF3A043B2DE74FF0FF3391E7059A0C
:1035B000B6E704469CE60C469AE66FF00B048CE6F0
:1035C0002DE9F74F90461F4A064615680F464540BD
:1035D000ED43002B14BF9A468A4600240C9B04F14D
:1035E00004094B4505D20C9B9C4220D303B0BDE897
:1035F000F08F042208EB04010DEB020001F094FEB1
:10360000019A0AEB040106EA020B04220DEB020008
:1036100001F08AFE019A38192A4042EA0B0201920F
:1036200004220DEB020101F07FFE4C46D6E718F8AC
:1036300004301AF8042033402A4013433B55013428
:10364000D1E700BF142000200928024818BF00203D
:10365000704700BF8287000801680E4A0346914206
:1036600015D1C169A2F11022A2F1EF1291420ED13F
:103670008268012A0BD8C26812B101698A4206D059
:10368000586928B19B691B1A58425841704701205C
:10369000704700BF55AA00FF70B50D4B9E68A6B1DC
:1036A0003046FFF7D9FF044678B9F3686BB935693E
:1036B0000DB9204670BD2846FFF7CEFF28B9EB684C
:1036C000B34202D12E462D69F2E70124F1E700BF93
:1036D000182000202DE9F8433F4F3C68D4B1BC6866
:1036E000C4B100284AD0002948D001FB00F5B5FB41
:1036F000F0F0884242D1281D40D8A9070DD025F00E
:1037000003060436FC6803E06368B34238D2A46958
:10371000002CF9D12046BDE8F8832E46F2E7FB6085
:1037200041E006F120016318203A5A600022C3E903
:1037300002242A4822691A6160502949D96102B1DC
:10374000D36062695A61A1699961AAB193619A696A
:1037500002B153614FF0010923610023C4E90169FB
:10376000C4E905333B69DB072ED5FFF795FF58B356
:103770001C4B48461B6826E0FB60E8E70024C9E7CD
:10378000A3681BB1174B01201B689847626804F1BE
:103790002008921B232AC4D80123A360D4E905235F
:1037A000002ABCD09361A3690BB162695A610023FE
:1037B000C4E905333B69DA0706D5FFF76DFF18B199
:1037C0000120084B1B6898472A4600214046444682
:1037D00001F0B5FD9EE700BF1820002055AA00FFAC
:1037E000669911EEA400002070B50546002800F08F
:1037F0008880444E3368002B00F08380B268002A32
:103800007FD0834203D872681344984203D33E4B5F
:1038100001201B689847A5F120042046FFF71CFFF4
:1038200018B1394B01201B68984755F8183C012BFB
:1038300003D0354B01201B689847002345F8183CFE
:1038400055F8143C3BB39A682ABB55F81C2C02F17E
:1038500020015A680A445A6055E905321A6155F840
:10386000145C2B6903B1DD6020220021204601F0A9
:1038700066FD286910B18368002B2ED033699B0741
:103880003FD5FFF709FF00283BD0BDE870401E4B35
:1038900001201B68184755F8100C00282AD08368AF
:1038A00043BB426863681344203363600369236148
:1038B000D4E905239AB9CBB9436963618269A261EE
:1038C000B3B19C61A36903B15C61236903B1DC609E
:1038D0002022002101F033FDD0E72C46E1E793617F
:1038E000A369002BE8D062695A61E5E7F360F7E766
:1038F000F460E7E7F36845F8083C03B15C61F46005
:10390000BCE770BD18200020A400002038B50C468C
:10391000142200210546134801F011FD12491348F5
:1039200000F040F8232C1CD915F003031FBF043C02
:10393000E418C3F10403ED1822460021284601F0E3
:10394000FEFC084B0A49C3E90054203C9D606C60B2
:103950009A6811609A68A1F11021A1F1EF11D1616B
:10396000DA6038BD18200020E9370008D536000895
:1039700055AA00FF10B50A46044619B1024B0021B2
:103980001B68984710BD00BFA0000020014B1B68BA
:10399000184700BFAC000020014B1B68184700BF50
:1039A000A8000020024B1860024B002019607047ED
:1039B000AC000020A8000020F8B500F10806476818
:1039C000044630460D4603F021F987424BD1636827
:1039D000B3F5806F47D80021304603F0D6F90028B0
:1039E00041DD0021304603F0FDF8E0B345B929463A
:1039F00004F1100003F0C9F9002834DD0020F8BDFF
:103A000004F120050021284603F0BFF900282ADD33
:103A10000021284603F0E6F828B304F12805002128
:103A2000284603F0B2F900281DDD0021284603F0E6
:103A3000D9F8C0B1002104F1100003F0A6F9002864
:103A400011DD002104F1300003F09FF900280ADDA8
:103A5000002104F1380003F098F9002803DD00216B
:103A600004F14000C6E70148C9E700BF80BFFFFF7F
:103A7000012970B505460E46144601D9074870BDA8
:103A800003D00020C5E91C64F9E7002AF9D01046EC
:103A9000FFF7DAFD0028F4D1F0E700BF00BFFFFF19
:103AA00070B500210446FFF787FF054610B10E4DA3
:103AB000284670BD04F10806304603F0A3F87F28BD
:103AC000F5D910342946204603F08CF80028EED0B2
:103AD000204603F097F80128E9D93146204603F043
:103AE0000CF90028E4DBE2E700BEFFFFF0B50C466E
:103AF00085B0002105461646FFF75EFF002839D144
:103B000002A802F09BFF21466A6802A803F084F82D
:103B1000044618B102A802F096FF0CE005F1080473
:103B2000214602A803F0E9F8002807DB02A802F00A
:103B30008AFF6FF00304A4F5854418E005F14803FB
:103B400002A96F680846009305F11002234603F0AE
:103B500055FB04460028DDD13A46314602A803F061
:103B600071F8044602A802F06EFF002CE3D1204653
:103B700005B0F0BD004CFAE780BFFFFF03460846E2
:103B8000C1B9C3E910110D4A0D49DFF838C0C3E9C6
:103B900012120D4A0D49C3E914C20D4AC3E91612A7
:103BA0000C4A1A6602F17452A2F52302A2F692425E
:103BB0005A6670476FF07300704700BF85AE67BBF1
:103BC00067E6096A72F36E3C3AF54FA57F520E51D3
:103BD0008C68059BABD9831F2DE9F04FCFB000F166
:103BE000640300F144070DF58A7900934A463B4689
:103BF000019153F8041F42F8041F00999942F8D12B
:103C000004AD4FF000082C46DFF8F8A0B8F10F0F14
:103C100061D8019B042203EB880103A801F084FB17
:103C2000039803F08AFBA860D4F818C1D4E947636D
:103C30004FEAFC227340D4F8206182EABC1203EA06
:103C40000C0382EA7C6273401344D4F824215AF8AE
:103C5000041B1344D4F810610B440344D4E9421EFE
:103C60004FEA713041EA0E0280EAB100324001EAC7
:103C70000E0B80EAB15042EA0B020244D4F8140160
:103C8000626018441344D4F8202108F10108C4F8F4
:103C90002421D4F81C21B8F1400FC4E947C2C4E97B
:103CA00044E6C4E942312360C4F8180105F1040573
:103CB000ACD157F8043F59F8042F13443B60009BE4
:103CC000BB42F6D104A84FF49471FFF753FE0020D5
:103CD0004FB0BDE8F08F2B6855F8382C4FEAF34011
:103CE00080EA734080EA932055F8143C55F8341C60
:103CF000134418444FEAB14383EAF11383EAD10332
:103D0000184490E7287F000830B5816885B01039E5
:103D100021F00704054601F08CFA1022014668469E
:103D200001F00DFB10226846064901F0FDFA102350
:103D30006A462146284601F048FA003818BF01209B
:103D400005B030BD6C80000830B50D46816887B085
:103D5000102302AA1039044601F022FA002802DAE0
:103D6000012007B030BD1022204602A903F0E4FB79
:103D700000283AD110221E4902A801F0C5FA0028F5
:103D80000CBF012302232B70204603F0C1FB01234B
:103D900001460DF10702204601F002FA0028DFDBA0
:103DA0009DF80730204603F00F021B096A702B7143
:103DB00001220DF1070103F0BFFB10B96B78042B52
:103DC00003D901236B7000232B71A2682046183A97
:103DD00022F00702083AA91C03F0C1FB0028BFD15A
:103DE0002046E91C03F014FCBBE70323CBE700BF2C
:103DF0006C800008F0B5354F85B046000546694631
:103E000057F8260003F00AFC044610B1FF2005B065
:103E1000F0BD013657F8260002A903F0FFFB012888
:103E200037D12A4649212A4801F0ACF9294B8DF8AF
:103E30000C40029300229DF800609DF80870264C0B
:103E40003146207803F06AFB50B33946607803F0BE
:103E500065FB28B3A378042B03D09DF80310994287
:103E60001ED1E378042B03D09DF80B10994217D193
:103E70002379042B10D16279022A1DD1174B1848DF
:103E80002A46492101F07EF96079831E022BBED9B2
:103E9000BCE70028CED0B9E79DF802109942EAD0DD
:103EA0000132032A04F10604CAD10E482A464921E8
:103EB00001F068F90120AAE7032A05D00A4B0B4953
:103EC000042A08BF0B46DAE7094BD8E72880000828
:103ED00096870008030103032B8800088A870008DF
:103EE000E187000805880008F68300088F8700082E
:103EF00085870008014B9868603070472C200020AF
:103F000038B5EFF31185102383F31288BFF36F8F59
:103F1000064B9C6803F0D1FB85F31188BFF36F8FCC
:103F20002046BDE83840FDF77FBE00BF2C200020B2
:103F300038B5094B53F82040013053F82050A542C2
:103F400000D838BD636823B1204603F0B9FB0834BC
:103F5000F5E723689847FAE730800008012270B53A
:103F60002A4B032086B01A70FFF7E2FFFDF7F0FC42
:103F700003F0C2FB0420FFF7DBFF254C254D26464E
:103F8000AE4204F1300410D300F09AFA204C224ED5
:103F9000AC4226D300F0A8FAFCF734FA1F4A137B90
:103FA00023F00103137306B070BD54F80C3C059365
:103FB00054F8103C049354F8143C039354F8183C00
:103FC000029354F81C3C019354F8203C009354E9AC
:103FD0000A2354E90C0100F021F954F8303C5E65E5
:103FE000CDE7D4E90A23B3F1FF3F08BFB2F1FF3FA9
:103FF00005D052EA0301206803D100F035FB3034CC
:10400000C6E73146183000F0C5FCF8E75C390020FF
:10401000407C0008407C0008F5770008680100201B
:1040200008B50348034A0021121A03F061FB08BDDA
:10403000E800002060390020702370B5134E012283
:1040400003FB0066002386B0CDE904230F22019311
:10405000CDE9023214230E4D0E4903FB00550446F0
:1040600001EB00214FF4807230460B4B009500F0BD
:10407000D5F8737B2C7423F004037373074B01345E
:1040800003EBC423EE606B6006B070BDF800002047
:104090002C20002060410020FB76000860390020C1
:1040A000BFB50020FFF744FF274B83F30888274C58
:1040B00000256369264F43F400736361F02384F89D
:1040C0002230E57725766576A57684F82050636AF8
:1040D00043F4E0236362FDF77BFDFDF761FE4FF0E3
:1040E000FF331C48A362E36200F0C2F803F0D1FA88
:1040F000FDF7DEFB0120FFF71BFF0220164CFFF748
:1041000017FF00F025FA154B15495C61154B4FF46C
:104110002052059301232046CDE90353CDE90155F3
:104120003B46009500F07AF80646627B204622F076
:104130000402627303F032FB2846FFF77DFF3A4624
:1041400031462046FDF714FE6041002000ED00E0FE
:104150005D3F0008D8010020680100202C200020CD
:10416000604200203D88000870B5EFF311861023EF
:1041700083F31288BFF36F8F0468A0421AD0CCB1CA
:10418000D4E90032002513605A60637BC4E900550E
:1041900023F002036373A56004F1180003F060FBD1
:1041A0002046E56603F0FAFA3146BDE8704007485C
:1041B00000F060B9D0E902329A4218BF013383603F
:1041C00086F31188BFF36F8F70BD00BF5D3900208B
:1041D00013B5EFF31181102484F31288BFF36F8FAE
:1041E000846844B1013C846081F31188BFF36F8F10
:1041F000002002B010BD52EA030406D181F31188F9
:10420000BFF36F8F6FF00F00F3E7CDE90023024695
:10421000014800F003F9ECE75D3900207FB50C9E02
:1042200000F1580506730426C0E91655002504461A
:10423000467307320B9E22F0070286738E180A9A85
:10424000C0E906558560C5730292099A0192089AE1
:1042500000923246FDF770FD044B65659B6803B123
:104260005B6E3046636604B070BD00BF2C2000203A
:1042700040F20113838100234366014B986070472D
:104280002C2000206FF00A01084A9368D96608497B
:1042900098664B6843F080534B60002383F311888A
:1042A000BFF36F8F9368D86E704700BF2C2000203B
:1042B00000ED00E070B590F90D20437B002A36DB5D
:1042C000D90634D11B4C63F07F032246437352F866
:1042D000183FE169934207D1C0E900210860E0611D
:1042E00011E09942F8D01B68002BF5D090F90E50E0
:1042F00093F90E60B542F4D0AE42F2DD5968C0E9E0
:10430000003108605860A569954200D005B9E5689C
:10431000A3685A7BD20604D1DA897F2A01D9AA6917
:1043200032B1AB4202D0284600F092FA656170BD0E
:104330006361FCE72C20002038B590F90D20014680
:10434000002A437B04DA03F07F03437303F0ECF9A4
:104350000D4D2A4652F8184FAB68944200D004B96C
:10436000EC688B4207D05A7BD20604D1DA897F2AC7
:1043700001D9A2692AB1A34202D0204600F068FA0E
:1043800023466B6138BD00BF2C20002070B590F92A
:104390000D200146002A437B04DA03F07F034373B8
:1043A00003F0C2F91C4C4B7B224663F07F034B7336
:1043B00052F8183FE069934207D1C1E9002001603B
:1043C000E16111E09842F8D01B68002BF5D091F91B
:1043D0000E5093F90E60B542F4D0AE42F2DD58684B
:1043E000C1E9003001605960A569A368954200D019
:1043F00005B9E5688B4207D05A7BD20604D1DA8929
:104400007F2A01D9AA692AB1AB4202D0284600F01E
:104410001FFA2B46636170BD2C200020F8B5124BAB
:104420000C46DDE9067611469868104A1060EFF3F5
:104430001182102282F31288BFF36F8F9D68284685
:1044400003F084F9B6F1FF3F08BFB7F1FF3F06D094
:104450003A463346064905F1180000F09BFA20461B
:10446000BDE8F840FFF70EBF2C2000204C200020B4
:10447000F577000849B9EFF3058030B9054B5A6963
:104480009B689A4201D0FFF7FDBE81F31188BFF30C
:104490006F8F70472C200020034648B9EFF3058248
:1044A00032B9064A51699268914201D0FFF7EABEDB
:1044B00083F31188BFF36F8F704700BF2C2000205B
:1044C000EFF31181102383F31288BFF36F8F054B35
:1044D0009A68D37B013BD37381F31188BFF36F8F4D
:1044E000704700BF2C20002070B5EFF31186102319
:1044F00083F31288BFF36F8F144DAB68DA7B013200
:10450000DA732A4652F8184F944200D004B9EC6886
:104510005A7BD20604D1DA897F2A01D9A2692AB14D
:10452000A34202D0204600F093F923466B6186F344
:104530001188BFF36F8FEFF31180102383F312887C
:10454000BFF36F8FBDE87040FFF7A6BF2C2000209F
:10455000024B03F11802C3E9062270472C20002009
:1045600070B5EFF31186102383F31288BFF36F8FBA
:104570001B4CA168E0690B68814214BF1A460022F7
:1045800049680B605960A368E1692AB9154AC3E913
:1045900000210B60E3610CE093F90E0092F90E50DC
:1045A000A84218D0854216DD5168C3E900210B608E
:1045B0005360A5690B4B9D4200D005B9E568A3681F
:1045C0009D4202D0284600F043F965613046BDE8BF
:1045D0007040FFF757BE8A42D8D01268D5E700BFB7
:1045E0002C2000204420002050EA01032DE9F04156
:1045F00005460E4604D1FFF7B3FF0020BDE8F08169
:10460000831C71F1FF3324DB03F04BF92C18EFF31B
:104610001188102383F31288BFF36F8F0F4F104B55
:10462000B8681860FFF788FEB8680E492A46334616
:10463000183000F0AFF9BA684046537B43F00403EA
:104640005373FFF71FFE03F02CF9201A20EAE070E5
:10465000D4E76FF00104241AD9E700BF2C20002012
:104660004C200020F577000838B50446EFF311859B
:10467000102383F31288BFF36F8F437B5B070FD543
:10468000183003F0EDF8637B204623F004036373D6
:10469000FFF710FE2946BDE838400448FFF7EABEA0
:1046A00085F31188BFF36F8F38BD00BF5D390020DF
:1046B000014B9868704700BF2C2000202DE9F8437B
:1046C0000446077BEFF31185102383F31288BFF3B1
:1046D0006F8F437B190705D585F31188BFF36F8F63
:1046E000BDE8F883D90943F008025AD14273A368A0
:1046F00013B1204603F020F804F1180003F0B0F8DD
:10470000A66D04F15808B04511D04FF0000976B1FC
:10471000304603F011F806F1180003F0A1F8304616
:10472000C6F86C90FFF7C6FDA66DB045EFD1DFF877
:10473000B880D8F808309C423BD1EFF30589B9F135
:10474000000918BF4FF00109D8F81860274A9642AF
:1047500000D00EB9D8F80C60B34202D0304600F059
:1047600077F8C8F81460B9F1000F02D02048FFF7BD
:104770007FFDD8F808309C4231D1EFF3058373BB3D
:10478000227BD20718D42846FFF77CFDFB07A7D56C
:10479000002383F31188BFF36F8F0423184602DFD1
:1047A0009EE703F07F0343F00803437302F0BCFF6E
:1047B0009DE74FF00009C7E785F31188BFF36F8FBE
:1047C00083F31188BFF36F8F0423184602DFEFF3E2
:1047D0001180102383F31288BFF36F8FD4E785F322
:1047E0001188BFF36F8FD1E72C20002044200020D8
:1047F000D80100200122044BC01A044BC0105843BA
:10480000034B1A54704700BF48020020ABAAAAAA63
:104810005D390020C3897F2B12D80A4B1B6863B116
:10482000094B90F90E201B689A4209DB437BDB069B
:1048300006D1064BC31A18BF012303F001007047CD
:104840000023FAE75420002050200020F800002028
:1048500070B50E4B0E4C1E7C182303FB0644054618
:10486000204602F0FDFF00220A4B28469A55FFF72A
:10487000D1FF48B1084B2046BDE870401A6807498F
:10488000013AD31700F086B870BD00BF2C2000207D
:10489000480200205D39002054200020F547000820
:1048A00038B5EFF31185102383F31288BFF36F8FB0
:1048B000104B114A9C681068A04206D1FFF7C8FF50
:1048C00085F31188BFF36F8F38BD00211B7C116009
:1048D0000A4AD35C002BF3D02046FFF79BFF002849
:1048E000EED0637BDB0602D12046FFF74FFD20466A
:1048F000E4E700BF2C2000204C2000205D39002080
:10490000074808B5074A0849121A02F0F3FEBDE845
:1049100008400648064A0749121A02F0EBBE00BFDB
:1049200000000020E400002044880008000000206F
:104930000000002044880008024B1868984208BF15
:1049400000207047B0000020034B1B680BB9FEF736
:1049500017BB0020704700BF5820002030B570B151
:104960000B4B5B6898420AD0036843B1D3E904213A
:10497000D0E90445121941EB0501C3E90421D0E94E
:10498000003213605A600023C0E9003330BD00BF1D
:10499000B0000020B3F1FF3F08BFB2F1FF3FF8B510
:1049A00004461D4616465AD08160EFF31187102346
:1049B00083F31288BFF36F8F013275F1FF3321DA71
:1049C0006FF001032B49D1E900209B1A4FF0FF3211
:1049D00062EB00009E1B60EB0500012E70F10003EE
:1049E00001DA01260020C4E90460FFF7A5FF224E8A
:1049F00084467068BCF1000F0DD1C4E9006004600A
:104A000074601CE0FFF7A0FF013645F10005361881
:104A100045EBE070E7E7DCE90425D4E90431934293
:104A200071EB050E1CDAD21ADCF8043065EB0105D7
:104A3000CCE90425C4E900C31C60CCF80440FFF7AE
:104A40007BFF844207D10D4B1C6824B902F0EFFEB6
:104A50002146FEF717FA87F31188BFF36F8FF8BD71
:104A60009B1A61EB05018445C4E90431C5D0DCF82B
:104A700000C0BFE760020020B000002058200020E6
:104A80002DE9F047EFF31185102383F31288BFF36C
:104A90006F8FDFF8A0900026C9F800000027FFF70D
:104AA0004BFFDFF89480D9F80030D8E900ECD91733
:104AB00050B1D0E90442A34271EB020A1ADAE41AB7
:104AC00062EB0102C0E90442002413EB0E034CEB3D
:104AD0000101C8E90031C9F8004002F0A8FE2146F2
:104AE000FEF7D0F985F31188BFF36F8FBDE8F0476B
:104AF000FFF7D6BE14EB0E024CEBE473C0E904677B
:104B0000C8E90023FFF72AFF85F31188BFF36F8FF1
:104B100083689847EFF31185102383F31288BFF35E
:104B20006F8FD9F800301B1BC9F80030FFF704FF66
:104B3000B9E700BF582000206002002010B5EFF355
:104B40001184102383F31288BFF36F8FFFF7FCFEED
:104B50000346054AD2E90001181841EBE37184F3DA
:104B60001188BFF36F8F10BD60020020704700787E
:104B700070472DE9F7430E4617469946044628B973
:104B80004FF0FF38404603B0BDE8F0830029F7D06E
:104B9000002AF5D0CB680D8938461D4404232946E8
:104BA0000DEB030200F0FCFA80460028E8D146F63F
:104BB0000812BDF804107389914225D1BDF8061082
:104BC0009942DDD1042338460DEB0302294400F05D
:104BD000E7FA0028D4D146F60713BDF804209A421C
:104BE000CED1C4E900679DF82830A4F80890A372DC
:104BF0007389BDF806202B44E360738913442B446A
:104C0000043563612561BDE7002BE4D0B8E72DE9E9
:104C1000F3410E4617461D46044620B94FF0FF30BB
:104C200002B0BDE8F0810368002BF7D04368002B89
:104C3000F4D04FF6FF78D4E904239A4216D22368C1
:104C40005B8923B1E368934204BF043323610423E7
:104C5000216960680DEB030200F0A2FA0028DDD1A3
:104C6000A37A2BB1D4E903329A4201D30120D7E7CA
:104C70002389BDF80610434501F1040203D0BDF8B5
:104C800004C09C450BD115B1BDF804302B802369BD
:104C9000043333603980236913442361C0E72369F7
:104CA00013442361C7E748B103683BB143682BB1A4
:104CB000C068884294BF0020012070474FF0FF3049
:104CC000704700F021BB4FF44073584330307047B9
:104CD00010B5044600F0A6FA2378032B1ABF4FF450
:104CE0004073584300EB400000F13003A068C01A45
:104CF00010BD70B50D46044602F00AFC2A46A0F12C
:104D0000080104232046BDE8704000F049BA13B5FD
:104D10000446019102F0FCFB0423A0F108010DEB15
:104D20000302204602F037FC02B010BDFFF7D0BFEF
:104D3000F7B5044600200D461746FBF7C1FB694650
:104D4000C0B2FCF7C5FD30B10125009800F027FA8C
:104D5000284603B0F0BD2C2303FB0544E3682689F5
:104D600000981E44042331460DEB030200F018FAAC
:104D700005460028E8D146F60813BDF804206489EA
:104D80009A42009819D1BDF806309C4201D0032503
:104D9000DBE70423A1190DEB030200F001FA002860
:104DA000D2D146F60713BDF804209A42EFD1BDF8E0
:104DB0000610214431443960C7E7002CF1D0E6E702
:104DC00070B513460E46154600210246044600F013
:104DD00053F950B92B460121204604F12C0200F072
:104DE0004BF910B1002E08BF002070BD73B54FF411
:104DF00080750446426A01A90120019500F042FA3B
:104E0000B0B9019B0220226DA36201A9019500F0B7
:104E100039FA18B10925284602B070BD019B03205C
:104E2000E26D636501A9019500F02CFA054608B111
:104E30000125F0E7019B206A236600F0F3F906469E
:104E4000A06D00F0EFF986422CBFA666A066E2E7EF
:104E50000123036003F1012343600023C0E902330F
:104E600070474379012B07D10368012B04D10079E6
:104E7000431E584258417047002070477FB58B79D8
:104E80000646002B0D460CBF0120032001A9FCF7AC
:104E90001FFD38BB0198FFF71BFFB16E0446284683
:104EA00000F0DFF80444019800F0BCF906460198D0
:104EB00000F0BFF9082201460DEB020000F03FFAB6
:104EC0002B7921468DF808300198334602AA00F06C
:104ED0007CF9041E019818BF012400F060F92046F7
:104EE00004B070BD0124FAE700F084B92DE9F8435D
:104EF0000E46002107460846FBF7E2FA0446012168
:104F00000020FBF7DDFA33789C4221D0984221D172
:104F100001252C2303FB0575B86EAC6AFFF7D3FEA1
:104F20004FF000080746013C6B6A304603EBC402B1
:104F300053F83410D2F804901B684A46C91AC84482
:104F4000FFF7D2FFB84504F1FF34EDD3BDE8F88395
:104F50000025DEE70120F9E737B515460C460220AB
:104F6000694602F05BFBE979012903D00022204663
:104F700002F068FB9DF80330012B02D1204602F0BD
:104F800040FBA9682046FFF7C2FE2046FEF7BCFEA4
:104F9000002003B030BD73B50D460646FCF75AF845
:104FA00001280446E86008D0022831D000280CBF50
:104FB00004460724204602B070BD032001A9FCF777
:104FC00087FC48BB2A4631460198FBF787FF044619
:104FD000D0B9019802F09CFA012301460DF10302B9
:104FE000019800F0DDF80446A0B9012201980DF106
:104FF000030102F0A1FA10B101238DF803309DF8EE
:10500000033003F00F03EB71019800F0C8F8D1E70B
:105010000120D3E70124F7E70124CBE7002330B5D3
:105020001A46044618468A4201D39A4204D2656A57
:1050300005EBC0056D682A448B4201D39A420CD916
:10504000256D8A4205EBC0056D682B4403D3994258
:1050500001D89A4204D00130E5E78A42F9D2FAE752
:1050600030BD10B5036801EB41045A1E0379013BC2
:10507000594304FB021010BD2DE9F74307460C46C7
:1050800090461E46002B60D01846FFF7EAFE002827
:105090005BD16946FBF752FC18B1012003B0BDE8B3
:1050A000F083009801A9FFF724FE8146009800F0E4
:1050B00076F8B9F1000FF0D101993846FFF7AEFF4D
:1050C00049460546002D0BDA33685A1E8A4219D329
:1050D000B4FA84F4640921460020FBF7F1F919E0E1
:1050E000BB6D7A6A986802EBC5035B68984207D388
:1050F0000432013D04D352F835C063449842F8D2DB
:105100000131DFE78B4220D1012C17D13379012BFC
:10511000E1D903206946C0B2FCF7DAFB014600285A
:10512000BBD120234246009800F03AF8044600988C
:1051300000F035F8201E18BF0120AFE72CB93479F4
:10514000022C94BF00240124C5E7022CC3D1E0E760
:10515000002070470FB407B504A951F8040B019162
:10516000FCF76CF903B05DF804EB04B0704704463B
:1051700008B5084611461A46A047FFF799FAFCF70A
:1051800053FD70470FB407B504A951F8040B019102
:10519000FCF754F903B05DF804EB04B070477047B6
:1051A000002930B4044618460BDBA5680844A84221
:1051B00007D8E0686468214484682468A44630BC49
:1051C00060476FF0150030BC7047002930B40446CA
:1051D00018460BDBA5680844A84207D8E068646855
:1051E000214484686468A44630BC60476FF01500B1
:1051F00030BC70470029034610B410460BDB9C6896
:105200000844A04207D8D8685B68194483689B6843
:105210002BB110BC18476FF0150010BC70476FF031
:105220005700FAE708B5C0688368DB6898470068EC
:1052300008BD08B5C0688368DB689847407908BD39
:1052400070B54C680368A34201D2012070BD8A6822
:105250002244934201D30020F8E74E69D1E90325A7
:10526000B54203D36FF00B038B61F4E71B1B42F8CD
:1052700035304368086902EBC00253600B690133A3
:105280000B61E2E737B50C46C0B201A91546FCF741
:105290001FFB00280CDB019850B121462A46FCF781
:1052A0003DFB04460198FFF77AFF204603B030BD6E
:1052B0006FF01504F9E7012801D1EFF30583FEF73C
:1052C0001FBE01460068FFF7F6BF00210120FFF76F
:1052D000F2BF61B662B680F31188BFF36F8F70477B
:1052E00072B6002383F31188BFF36F8FBFF34F8F24
:1052F00030BF62B6BFF36F8F7047034600201A5C61
:1053000002B970470130FAE710B55AB10139841873
:1053100010F8012B11F8013FA04201D09A42F7D0BA
:10532000D01A10BD1046FCE710B5431E0A44914246
:1053300000D110BD11F8014B03F8014FF7E7034608
:10534000C9B20244934200D1704703F8011BF9E748
:105350004FF0FF307047704708B5FEF7CBFD0C23C8
:105360000360002008BD08B5062201210020FCF7DB
:1053700071FD002206201146FCF7B0FC0121072236
:105380000846FCF767FD002207201146FCF7A6FC43
:10539000082201210220FCF75DFD002208201146B1
:1053A000FCF79CFC092201210320FCF753FD00229D
:1053B00009201146FCF792FC0A2201210420FCF787
:1053C00049FD00220A201146FCF788FC052117221E
:1053D0000846FCF73FFD002217201146FCF77EFC33
:1053E000282206210A20FCF735FD0022282011463C
:1053F000FCF774FC002008BD0120884070470F2393
:1054000000F0030204329200934043EA9000020C41
:1054100092FAA2F2B2FA82F210B5C3B29B0003F183
:10542000804303F580339C68914024EA1040014397
:10543000996010BD0B8882B0C3F30B0303F6EC72C6
:10544000C2F30B02082A14D803F1804303F5043396
:105450001A684868024300201A600B88C3F30B03E4
:1054600003F1804303F504331B680193019B02B0F1
:1054700070476FF08500FAE70B88C3F30B0303F660
:10548000EC72C2F30B02082A9FBF03F1804303F5BD
:1054900004331A6849689BBF00208A436FF0850077
:1054A0001A607047072808D8EA23C34013F0010F99
:1054B00014BF00206FF0850070476FF085007047C3
:1054C00010B50888C0F30B00FFF7ECFF00281FDBC6
:1054D0004A68FF2A1BD093B203F1804303F50433DB
:1054E0001868C2F38454C2F3054204FA02F220EAB7
:1054F00002021A6049688BB203F1804303F504335A
:105500001868CA0EC1F305418A4002431A600020A0
:1055100010BD088808B5C0F30B0000F6EC73C3F3A8
:105520000B03082B0AD800F1804000F50430026814
:105530004B68934314BF0120022008BDFFF7B2FF60
:10554000002814BF01200220F7E7704700207047B1
:105550007047F7B51C460023164682682360A36097
:105560000D465369694601AA9847019B5A1E01924C
:105570001BB96FF0150003B0F0BD0098A268476832
:105580002168676085B9B31AD0F800C0634528BFA9
:10559000634603FB07111A442160A26002689A4225
:1055A00006D808300090E0E76B1AB3FBF7F3EBE79F
:1055B0000020E0E713460022FFF7CBBF2DE9F047BC
:1055C0000024836886B0884691465B6902AA01A9D7
:1055D0009847A2462546029BAB4202D806B0BDE8DA
:1055E000F0870026019F07EBC5077B6804933A68A4
:1055F0000AEB0603B24202D89A460135EBE7494668
:105600000394059303A8C0470028E7D0049B013604
:105610001C44ECE743681C330B60012313607047A4
:10562000436800209B69C1E900307047FEF79CBDCC
:105630004FF0FF324FF0FF33FEF7CABDF0B54468BC
:10564000076900208BB000908DF804000120119EA6
:10565000079010988DF80010D107CDE9080602F0E8
:105660008005CDF818D00DD53A7C1BBA0493D3072A
:105670001DD5042204A90DF10100FFF755FE079B7B
:1056800004330793002E0CBF0122022206ABCDE9A2
:105690000323029302232146059351F8040B85B19D
:1056A00083681C68002302AAA0470BB0F0BD032248
:1056B0000DF111010DF10100FFF736FE079B0333D9
:1056C000DFE783681C6804ABEDE7002373B50D1EAC
:1056D000466814BF04210621CDE900338022044628
:1056E000FFF7ACFF96F829309B0609D540B93DB9C4
:1056F0000346CDE90000802298212046FFF79EFF57
:1057000002B070BD1FB5012301930DF10F0300938B
:10571000002305211A46FFF791FF08B99DF80F00F5
:1057200005B05DF804FB2DE9FF41064615461C4611
:1057300001270DF10F08002305211A463046CDE957
:105740000087FFF77BFF40B99DF80F30DB0704D5DA
:105750002846214602F052F8EDE704B0BDE8F0819A
:105760002DE9F3471F4643680D1E064690469B6988
:105770005CDBEA199A4259D80069FFF759FF00210A
:105780003046FFF7A2FF0446002844D181462FB9D6
:1057900001213046FFF799FF044640E0B7F5807FCE
:1057A000BA4628BF4FF4807A2A4605EB0A03002D3B
:1057B00003F1FF334FEA1323B8BF05F1FF02B3EB48
:1057C000222F08D06B42DBB25FFA85FA58BFC3F1D3
:1057D000000ACAF5807A0023802206213046CDE9EE
:1057E0000099FFF72BFF0446A8B92B46812202211E
:1057F0003046CDE9008AFFF721FF044658B901225F
:1058000000233046FFF78FFFA7EB0A070446D0447A
:1058100055440028BBD001213046FFF756FF3069C0
:10582000FFF704FF204602B0BDE8F0876FF01504D3
:10583000F8E7F7B51E4643680D1E044617469B69F8
:1058400014DBAA199A4211D80069FFF7F1FE2B4622
:10585000012203212046CDE90076FFF7EFFE054641
:105860002069FFF7E3FE284603B0F0BD6FF0150591
:10587000F9E72DE9FF41044600694FF0FF320121AD
:1058800001F046FF6668306801F004FF28B96FF048
:105890001205284604B0BDE8F081F06818B101F0A7
:1058A000F9FE0028F3D02069FFF7C2FE2046FFF77B
:1058B00029FF051E49DDE80741D42069FFF7B6FE40
:1058C0002069FFF7B5FE4FF00308002303AF1A4627
:1058D0009F212046CDF804800097FFF7AFFE0546D4
:1058E0002069FFF7A3FE002DD1D13846424606F1CC
:1058F0002401FFF709FD0746002840F0978096F83D
:105900002830002B3DD02069FFF792FE2046FFF79C
:10591000F9FE051E30DD96F82830802225EA0305C1
:1059200006213B462046CDE900778DF80B50FFF766
:1059300085FE034678B12069FFF778FEA7E70022CD
:1059400000232046FFF7EFFE05462069FFF76EFEB5
:10595000002DB5DA9BE701210DF10B0200922046E4
:1059600080220191FFF76AFE0028E4D10022002383
:105970002046FFF7D8FE05462069FFF757FE002DA9
:1059800085D196F827506B1EDBB2FD2B19D9206903
:10599000FFF74EFE636893F82930990749D5002335
:1059A0008022B921CDE900332046FFF747FE0546A6
:1059B0002069FFF73BFE002D3EDA15F1860F3BD044
:1059C00067E715F00B0F3FF462AF2069FFF730FE79
:1059D00015F0080318D00123802201930DF10B0369
:1059E0000093172100238DF80B202046FFF726FE99
:1059F00003462069002B9FD1037C43F0010303740D
:105A00002069FFF713FEC2E7AA0705D4002380220E
:105A1000B721CDE90033E8E7802206212046CDE911
:105A20000033FFF70BFE0028F0D084E76FF0150578
:105A30002FE72069FFF7FAFD2069FFF7F9FD2069DC
:105A4000FFF7F4FD002524E74FF0FF324FF0FF335E
:105A50000C30FEF7BDBB7FB506460D4614461BB1A4
:105A600041EA0203DB0710D42946304601AAFFF7BA
:105A7000A1FD50B9013C304601AA6119FFF79AFD1A
:105A8000B0FA80F0400904B070BD0020FBE770B5AB
:105A90001C461546002322460E46FFF7DCFF40B1A8
:105AA0002CB12246284606F10061FFF73DFC00209C
:105AB00070BD6FF01500FBE70020704770B504461D
:105AC00001F0F3FE0A220023FAF732FB236910F1FA
:105AD00050061B6841F10005DA6812F0140F10D06F
