:020000040800F2
:10000000686A0020091900081F550008F518000843
:10001000F5180008F5180008F518000800000000A1
:10002000000000000000000000000000BD190008F2
:10003000F51800080000000069190008C92B000825
:10004000DD1A0008DD1A0008DD1A0008DD1A0008B4
:10005000DD1A0008DD1A0008DD1A0008DD1A0008A4
:10006000DD1A0008DD1A0008DD1A0008DD1A000894
:10007000DD1A0008DD1A0008DD1A0008DD1A000884
:10008000DD1A0008DD1A0008DD1A0008DD1A000874
:10009000DD1A0008DD1A0008DD1A0008DD1A000864
:1000A000DD1A0008DD1A0008DD1A0008DD1A000854
:1000B000DD1A0008DD1A0008DD1A0008DD1A000844
:1000C000DD1A0008DD1A0008DD1A0008DD1A000834
:1000D000DD1A0008DD1A0008DD1A0008DD1A000824
:1000E000DD1A0008DD1A0008DD1A0008DD1A000814
:1000F000DD1A0008DD1A0008DD1A0008DD1A000804
:10010000DD1A0008DD1A0008DD1A0008DD1A0008F3
:10011000DD1A0008DD1A0008DD1A0008DD1A0008E3
:10012000DD1A0008DD1A0008DD1A0008DD1A0008D3
:1001300053B94AB9002908BF00281CBF4FF0FF314E
:100140004FF0FF3000F00CB8ADF1080C6DE904CEB3
:1001500000F008F8DDF804E0DDE9022304B07047A0
:10016000704700BF2DE9F04786468C460846154685
:1001700074461946089E002B40F0C2808542B2FAB0
:1001800082F245D94AB1C2F1200300FA02FC2EFAEC
:1001900003F3954043EA0C0C94404FEA154EBCFB28
:1001A000FEF8A8B20EFB18CC08FB00F9230C43EABA
:1001B0000C43994528D9EB1808F1FF3704D299452B
:1001C00002D9A8F102072B44A3EB0903B3FBFEFC01
:1001D0000EFB1C330CFB00F0A4B244EA0344A04223
:1001E00014D92C190CF1FF3304D2A04202D9ACF17E
:1001F00002032C44241A43EA07401EB10023D440D2
:1002000034607360BDE8F0874746DDE76346F1E799
:1002100092BB0121431B4FEA154EB3FBFEFCAFB26C
:100220000EFB1C330CFB07F8200C40EA03439845F7
:1002300062D9EB180CF1FF3004D2984502D9ACF129
:1002400002002B44A3EB0803B3FBFEFC0EFB1C33A4
:100250000CFB07F7A4B244EA0344A7424ED92C1979
:100260000CF1FF3304D2A74202D9ACF102032C44B3
:10027000E41B43EA0040C0E7C2F12003954020FAA6
:1002800003F12EFA03F34FEA154EB1FBFEFC90404A
:100290000343AFB20EFB1C100CFB07F8190C41EA2C
:1002A0000041884504FA02F422D969180CF1FF30A4
:1002B00004D2884502D9ACF102002944A1EB08011F
:1002C000B1FBFEFC0EFB1C110CFB07F79BB243EAD3
:1002D00001439F420ED9EB180CF1FF3104D29F422B
:1002E00002D9ACF102012B44DB1B41EA004192E749
:1002F0006046E3E76146F7E76046A3E76346B7E792
:10030000834206D916B9002108467BE7C6E900E01A
:10031000F9E7B3FA83F78FB9834201D3724508D85E
:10032000BEEB020460EB030301209C461EB90021D2
:1003300068E73846FAE7C6E9004CF8E7C7F1200C51
:10034000BB4022FA0CF41C434FEA144920FA0CF388
:10035000B3FBF9F8B8402EFA0CF101430EFA07F599
:1003600009FB18301FFA84FE08FB0EFA0B0C43EA57
:1003700000439A4502FA07F240D9E31808F1FF302A
:1003800004D29A4502D9A8F102002344A3EB0A0340
:10039000B3FBF9F809FB183308FB0EFE89B241EAFA
:1003A00003418E452CD9611808F1FF3304D28E45E4
:1003B00002D9A8F10203214443EA0040A0FB0298BD
:1003C000A1EB0E014145CE46434602D306D14D4531
:1003D00004D2B9EB020E68EB04030138002EA6D05C
:1003E000B5EB0E0261EB030101FA0CFC22FA07F3F4
:1003F0004CEA0303F940C6E9003198E74046C5E7F7
:100400004346D9E730B54921254887B004F0DAFFE3
:1004100000F07AF803A800F01BFD224B1B68834212
:1004200004D04521204804F0CDFFFEE74921059A7C
:100430001E4804F0C7FF03991D484B7D0A7DC98AF9
:100440000091492104F0BEFF49211A4804F0BAFF87
:100450009DF8100002A900F033F8044608B105F039
:1004600088F8029A059B144D1344039A1289134489
:100470002B6006F0E1F801F00BF82B681B6883F3A2
:10048000088884F31488BFF36F8FBFF36F8F2B68D6
:100490005B6898474521094804F094FFFEE700BFD8
:1004A000DC830008741A0020F58300081884000813
:1004B0004784000865840008700200208A840008D0
:1004C000024608B538B106480023452104F07AFFFA
:1004D0006FF0150008BD4FF000630B60FAE700BF36
:1004E000AD84000821B1012906D06FF015007047D6
:1004F000044B53F830007047024B03EBC0035868BD
:10050000704700BF608000084FF4C051014803F0FD
:10051000B1B800BF642000202DE9F04F9B46F7B032
:10052000804B039036A80E46DDE9817914461D689C
:1005300007F011F8002136A803F0D4F93FB1B9F162
:10054000000F04DD4A46394636A807F00DF84FF093
:10055000000833897289D6F80CA013449A44C24526
:1005600063D80CA936A807F03EF836A806F0F7FFC6
:10057000839B5BB10CAF0DF1500C3A4603CA624548
:1005800018605960174603F10803F6D1002322468C
:10059000009331464FF6FF7306A804F06DFB8046CA
:1005A000002852D1214603980B9E04F077FCB042FC
:1005B0004BD34FF0FF36DFF870A1DFF870910DF1EB
:1005C000120304AA05A906A804F0A4FB00283CDB3A
:1005D00040F0A180059906A804F0E8FB50B94FF659
:1005E000FF71BDF81200524A32F8023B8B422CD008
:1005F0009842F9D1BDF81270102F30D0202F6CD056
:10060000012FDCD1BDF81030202B1ED820460599D3
:1006100036AA04F0F2FE0646B8B99DF810B0BBF158
:10062000200F34D94FF0FF36C9E7809BAAEB0809A9
:10063000994528BF99465A464B464146204604F004
:10064000DCFE28B136A806F08AFF364B1D6865E04F
:100650004A46594636A806F087FFC8447FE7BDF8EA
:100660001070202FF1D13B462046059936AA04F0A0
:10067000C4FE0028E9D13A4636A90CA804F0A4FB30
:10068000DAF800308342E0D14FF0010897E7D9F85B
:100690000030284F0393039B9E42C3DA1CA806F048
:1006A0005AFF00211CA803F01DF97A681CA81268E3
:1006B00057F8081B06F058FF14A91CA806F093FF72
:1006C0001CA806F04CFF5A4636A914A807F01BFADE
:1006D00000283FF474AF0136DDE7731C3FF46FAFC1
:1006E000D9F800309E429DDABDF81030B3F5807F16
:1006F000ABD12046059936AA04F07FFE0028A4D18C
:10070000F6B23946BDF81030009636AA0CA800F0B3
:10071000A9F8054686E7B8F1000F96D0284677B0CD
:10072000BDE8F08F04000020741A002068800008E3
:10073000A88300086C8000082DE9F0478946194617
:10074000464BADF5AE6D1E68DDF89035B3F5807F94
:100750007ED1202A7CD15CAA03F07CF804460028D4
:1007600076D19DF86F32BC2B72D10DF19008DF2746
:10077000454601900AA806F0EEFE00210AA803F003
:10078000B1F820220DF24F210AA806F0EDFE042256
:100790000AA80DEB020106F0E7FE02A90AA806F07E
:1007A00022FF0AA806F0DBFE202FBA46A8BF4FF0B2
:1007B000200A9DF8073040460133524602A9A7EBB4
:1007C0000A078DF8073007F088F9002FD044D1DCF4
:1007D000AC462946DF225CAB087813F8017B013A6E
:1007E00080EA070001F8010BF6D12B7803F07F03B4
:1007F0002B701CF8017B5FBB0134BE2CF9D195F83E
:10080000BE30012B24D10AA806F0A5FE39460AA85D
:1008100003F068F8082212490AA806F0A5FE494626
:1008200020220AA806F0A0FE20220DF24F110AA8ED
:1008300006F09AFE02A90AA806F0D5FE0AA806F05C
:100840008EFE20220DF24F2102A804F0BDFA0646CA
:1008500030460DF5AE6DBDE8F08700BF0400002006
:10086000D38400082DE9F04F9A46A3B02F4B0746DA
:1008700004A89DF8B0501E688846914606F02CFEEC
:100880000922012104A802F0A7FF294B03AA53F86B
:10089000354003EBC5035B6802941B6802A81C4447
:1008A0002146302305F003FF002838D1DDE902326C
:1008B00013449C4233D1214606AA02A805F00BFF3F
:1008C00068BB0DF1200B5A46214602A805F003FF34
:1008D000054620BB06A806F0B0FA029B05909C4294
:1008E0001DD12B462A46CDE9005B06A904A806F0D7
:1008F000B0FDA0B904A802F087FF80B906A806F0F1
:100900009CFA059004A806F0EBFD504507D1009035
:100910004B464246394604A8FFF70EFF064604A898
:1009200006F0E0FD304623B0BDE8F08F0400002063
:100930006C8000080B78032B0FD00A4A400052F855
:1009400020108B420BD0013052F82000834214BF9C
:100950004FF0FF304FF440707047184670474FF427
:100960004070704774800008F0B5836D87B00093C5
:1009700058236E46002503FB0100036A104F0193C4
:1009800056F8044B1023A168204602AA103904F03F
:1009900034FD034640B1227845210A4804F012FD97
:1009A0000024204607B0F0BD1022394602A807F007
:1009B000AAF80028F5D0002DF3D10125E0E700BF0B
:1009C000CC830008DB840008164B70B5002918BFE3
:1009D0000B4603F50062436203F580530121026573
:1009E000C365044604F014FB10B10125284670BD10
:1009F0000221204604F00CFB90B90321204604F0AC
:100A000007FB05460028F0D1206A04F035FD0646B4
:100A1000A06D04F031FD86422CBFA666A066E5E716
:100A20000925E3E77402002000487047781E002083
:100A300073B50D46002104462846CDE9001104F0A7
:100A400032FB58B323681F4EB34206D1204601AA99
:100A500004F05BFA08B104F08CFDE36AB34206D1FE
:100A60006A460121204604F050FA0028F3D1DDE95E
:100A70000032934288BF0193019BAB60019A2946E3
:100A8000204600F079FB104B1A68002A03DD57213D
:100A90000E4804F097FC002002B070BD01462046CD
:100AA000FFF762FF06460028D5D005F1080104F0E3
:100AB000C5F90028CFD1AB683046019304F09CFC07
:100AC000DCE700BF3DB8F396E41E00200785000870
:100AD000F0B52C2707FB01073D6A04460E4685B09A
:100AE0000DB904F046FD284604F0CDFC7B1EFA1C2F
:100AF00013F8011F81420FD19342F9D11EB129464B
:100B0000204604F045FB1E4B186805B0F0BD1D4B98
:100B1000186825E01C4A2EE02C237343E218116963
:100B2000C806EBD4E058194B9842F0D1D06813892D
:100B30001B18ECD25289D218E9D2AB689A42E6D29D
:100B400040F60C630B40E2D1CDE9023301934FF440
:100B500080732A460093394620460D4BFFF7DCFC94
:100B60000C4B1B688342D0D0002ED3D001212846E5
:100B700004F0DAFA084A4521084804F023FCC2E7E9
:100B80000000002004000020368500083DB8F396E0
:100B900064380020741A00203E850008488500084B
:100BA0002DE9F04B0E46904699460024099FDFF848
:100BB00044B0BC4201D300200EE03D1BB5F5806F70
:100BC00028BF4FF4806530462B460A4A04EB0901E2
:100BD00004F013FC10B10120BDE8F08B08992B46FE
:100BE0005A464046611804F01DFC0028F3D12C44FD
:100BF000DFE700BF781A0020F0B587B00E46044644
:100C000004F097FA014620B14521894804F0DAFB47
:100C1000FEE72046FFF7D8FE054678B900222046B9
:100C2000114604F021FA054618B3002257218148E5
:100C300004F0C8FB012384F864300AE04FF48072AA
:100C400057217D4804F0BEFB01239D4284F86430A7
:100C5000E4D194F86430042B8DF80F3000F28D80CD
:100C6000012B00F2928000F0A880FF2384F864300A
:100C7000A3E0204600F086F90028DBD002A804F0AB
:100C800009FA0146204604F0C1FA18B12A46572154
:100C90006A48CDE702A804F006FA80F0010102AA32
:100CA0002046C9B204F0E0F902460028BDD102A8EE
:100CB00004F0F9F9C8BB204602A9FFF7B9FE08B154
:100CC00004F057FC9DF80F30DA1E012A84F86430D6
:100CD00019D800F0DFF89DF80F3028B9023B022B3D
:100CE00008D994F8643011E0FF22023B022B84F80B
:100CF00064200DD8002000F0B7F80028F1D0FF23C1
:100D000084F8643004E09A1E022AF3D9FF2B04D140
:100D100045214B4804F056FBD2E7002220461146FD
:100D200004F0A2F9002885D0CAE79DF80F70012FC2
:100D300017D1104602F016FF831E022B05460DD870
:100D400039462046FFF7C4FE3E4B1B68984205D04B
:100D50003D4B1D68A84214BF0525012584F8645049
:100D600077E701212046FFF7B3FE364B1B68984218
:100D700014BF05239DF80F305DE7052B7FF475AF99
:100D8000002000F087F8C0B16FE7204602A9FFF706
:100D90004FFE002894D194F86430DA1E012A0AD854
:100DA00000F078F818B9002000F05EF828B1FF23B1
:100DB00084F8643084E7022BF5D094F86430FF2B7C
:100DC000A6D00022012B214D019210D011462046C1
:100DD00004F04AF958B12D681022002102A806F04B
:100DE0008AFE204604F0C3F9284607B0F0BD002172
:100DF0002046FFF76DFE134F3B689842EBD12B68FE
:100E00009842E8D0104B1B689842E4D0019B013314
:100E10000193019B012B00D0FEE7206A03F00FFF36
:100E20003071236A5B6834603D68B360D4E700BF0B
:100E300070850008E3850008A18500080F8600087A
:100E400039860008741A00200000002004000020E9
:100E500010B50446002004F0FCF802482146FFF7D4
:100E6000CBFE10BD781E002013B5094B01A913F865
:100E7000300000F097FB48B9019806F0B4FC044636
:100E8000019804F0B9FA204602B010BD0124FAE737
:100E90007C8000081FB50F4B01A913F8300000F04B
:100EA00081FBA8B9019802A902F006FE044668B9C0
:100EB0009DF80B30032B03D1019806F05CFC04462F
:100EC000019804F099FA204604B010BD0124F7E718
:100ED0000124F8E77C8000082DE9F74F80468A4618
:100EE000164603F094FF414681460020FFF722FD9D
:100EF000071E41DB00252C46AB46AF4206D1BBF1B5
:100F0000000F35D1002003B0BDE8F08FDAF868108B
:100F10000123404601FB05910DF1070204F06DFA33
:100F200000282BDB012240460DF1070106F0BFFB34
:100F300038B1BBF1000F02D0002C08BF2C460135A0
:100F4000DBE7BBF1000F10D0002CF8D045210C4896
:100F500004F038FA0323B4FBF3F35A1C03EB430306
:100F6000E41A013432603471CCE74FF0010BE6E74C
:100F7000002C08BF3C46EDE70720C4E70120C2E78C
:100F8000458600082DE9F843D0F828E0D0F854C091
:100F9000BEF5807F02D8BCF5807F06D9572128484E
:100FA00004F010FA0020BDE8F883836DD3F80880C0
:100FB00000231A4619461D461E461C4699468E4574
:100FC0000AD8944508D88E4503D1944501D1AE4244
:100FD00034D057211B48E3E74C4515D1476A07EB4E
:100FE000C1077F68013104EB0709076D07EBC207F2
:100FF0007F6801323C44A145E1D1C8454E444D448F
:101000001AD257211048CBE70CD9476A022B07EBBD
:10101000C1077F68B94402D157210C48C0E70123BA
:101020000131E8E7076D012B07EBC2077F683C44FD
:10103000F2D002230132DEE70023BEE70120B2E74F
:101040006886000806870008CE8600089786000894
:10105000F0B589B0044606A9006A02F02DFD08B17A
:1010600004F087FAA06D04A902F026FD06460028C8
:10107000F6D19DF81820012A51D0324B3249032A6B
:1010800008BF0B469DF81B20492102929DF81A20AB
:101090002E4801929DF8192000922D4A04F092F9F1
:1010A0009DF81020012A3CD0264B2749032A08BF6F
:1010B0000B469DF81320274C02929DF812204921DF
:1010C00001929DF8112021480092234A04F07AF9F8
:1010D000002527469DF81810207806F0DAFA30B37C
:1010E0009DF81010607806F0D4FA00B3A378042BB2
:1010F00003D09DF81A209A4219D107EB8507FE7894
:101100008EB1012E11D0154A154B022E18BF1A466A
:101110004921144804F056F9304609B0F0BD124B8D
:10112000B0E7114BC5E7114AF2E7114AF0E7013584
:10113000042D04F10404CDD149210E4804F042F9F4
:10114000EAE700BF348700083D8700087D87000874
:101150006F8700081E880008BE87000862870008A5
:1011600050870008C6870008388700084B870008AA
:1011700043870008DB8700082DE9F04F1646044638
:101180008DB0B4480D46492104F01CF93146204683
:1011900004F074F800238246BAF1000F069302DAD5
:1011A0000DB0BDE8F08F636AD4F8588003EBCA0233
:1011B000D8F808105668B14217D3181DBAF1010AC1
:1011C0000CD22A680699013A9142C0F04F81D4F8B6
:1011D0002090B9F1000F0AD104F0CBF950F83A2071
:1011E00032449142EDD31646E8E70026E9E7E26C87
:1011F0000392002AF0D00AF1010253F832201B6852
:10120000049205931346059AA06EA3EB020B03F01C
:10121000DDFD002102460790204603F02CFE626AA5
:101220000BEB060152F83030126808909B1A994275
:1012300040F20D81059BD9F8087040461F44049B7D
:10124000FF1A079BFF1A03F0E2FD874228BF0746FB
:101250002B68012B40F00281BB1B18BF0123AB712F
:101260002B79012B40F0FC80002340461946D8F82A
:10127000082003F08FFE0028AED12B68012B1ED171
:101280002A464146204603F098FF0028A4D1AB79B6
:10129000ABB94946204603F07BFF00289CD12A4683
:1012A0004946204603F089FF0346002894D10146B1
:1012B000D8F80820404603F06DFE00288CD10023AA
:1012C0004246009320465B4603990197FFF768FC6E
:1012D000002881D12946204603F0F2FE02232B711B
:1012E00018B15D4A1368013313602B68012B0CD1D0
:1012F00020460399099303F04BFF00287FF46CAF5D
:10130000AA79099B002A40F0B48032463AB1002302
:101310005946039803F03EFE00287FF45DAF5B461C
:1013200049462046CDE900B7039AFFF739FC00286B
:101330007FF452AF2946204603F0C2FE03232B71EF
:1013400018B1454A136801331360AB7983B149463C
:10135000204603F01DFF00287FF43EAF636A059A24
:101360001E68961B049AB61A089A53F832301E4427
:1013700046B1002332465946484603F00BFE00288A
:101380007FF42AAF00234A4641462046CDE900B704
:10139000FFF706FC00287FF41FAFAB79002B3BD092
:1013A000404603F034FDA26E5F44520003460192B2
:1013B00041464A4620460097FFF7F2FB18B1264AFD
:1013C00013680133136040460AA902F075FB002838
:1013D0007FF402AF9DF82B30012B05D1484606F073
:1013E000CAF900287FF4F8AE9DF82910012906D02B
:1013F0000022484606F0E0F900287FF4EDAE4846AA
:10140000A96803F029FD00287FF4E6AE484602F003
:1014100031FB00287FF4E0AE0023AE792946AB71A2
:10142000204603F04DFE2B6801332B6001232B7106
:1014300018B1094A136801331360BEB101230021BA
:101440004046D8F8082003F0A5FD78B1C4E6374639
:10145000FEE600BFF2870008E41E00200023FEE63F
:10146000022B3FF442AF032B3FF46FAF069B0133D7
:1014700092E61946079A204603F0FDFC236D059974
:101480001A6853F830308A1A0499521A1A443DE700
:10149000BFF36F8F72B64FF0FF32114BC3F880204D
:1014A000C3F88420C3F88820C3F88C20C3F89020A8
:1014B000C3F89420C3F89820C3F89C20C3F8802177
:1014C000C3F88421C3F88821C3F88C21C3F8902184
:1014D000C3F89421C3F89821C3F89C21704700BF3A
:1014E00000E100E0014B1B68184700BF0800002026
:1014F000014B1860704700BF0800002030B585B070
:1015000004460D4610220021684606F0F4FA022334
:101510008DF80230044B2A4621466846019303F0B9
:101520002DFA05B030BD00BFE514000880B50546B2
:101530000E461746984602F07BFF034606F00CFB6A
:101540000446DFF81890424649F8003039463046E4
:10155000A84754F8090000F0F1F900BF08000000A6
:10156000074B00205A6822F001025A605A6822F0A4
:1015700002025A605A6822F004025A60704700BFA3
:10158000002004E0044A136843F010031360034B87
:10159000034A1A60704700BF00200240A4000020E8
:1015A00000127A0070B5104B0D461C68B4B10F4B99
:1015B000196800238B4202DB6FF0010070BD2246E8
:1015C00012F8106B864202D014460133F2E7E0684D
:1015D00006F020F928B100202C60EFE76FF00C0036
:1015E000ECE76FF01200E9E70C00002088800008AB
:1015F00010B5436888B0029383680C46CDE9033286
:1016000000230A68C068CDE90623054901AA0593AD
:1016100004F0E3F8079808B9059B236008B010BDF3
:101620009554000808B5044803F0BEFEBDE8084024
:10163000024803F0B9BE00BF3C8900087289000867
:1016400030BFFFF7FDBF00BF2DE9F04105460B4E4F
:10165000DFF82C80324606EB0807CC1B20460949F0
:1016600006F03BFAA01942460021083C06F043FA76
:101670006C6607F10800BDE8F08100BF00000000C3
:101680000800000040800008054B5A699B689A4298
:101690001FBF044A536843F080535360704700BF34
:1016A0003820002000ED00E0134B9A6A12F0007F12
:1016B0009A6A14BF1E201D2012F0807F9A6A18BFFC
:1016C0001F2012F4002F9A6A18BF212012F4802FD5
:1016D0009A6A18BF222012F4003F9A6A18BF23208A
:1016E00012F4803F9A6A18BF24206FEA02426FEA20
:1016F00012429A62704700BF00ED00E010B5164B31
:101700009A6A9C6A12F4805F14BF1722162214F49E
:10171000006F9C6A18BF1822A40509D59A6B9A6AB3
:10172000120404D518B19A6A22F400429A6219226E
:10173000094B986A10F4806F986A18BF1A2210F447
:10174000807F986A40F47F4098624FF000030CBF9E
:1017500010461B200B7010BD00ED00E010B5154BBE
:101760000246986A9C6A10F0100F14BF11201020D6
:1017700014F0080F9C6A18BF1220A40709D5586BF3
:10178000986A000604D51AB19A6A22F080029A6219
:101790001320084B9A6A12F0010F9A6A18BF14209E
:1017A000D20658BF9A6A9A6A42F0FF029A620023F0
:1017B0000B7010BD00ED00E0F0B5474B04465B68D0
:1017C00000258BB0C3F3080385F31188BFF36F8F37
:1017D00002F07F40B0F17F4F11D102F00C000828D9
:1017E0000DD010074CBF0C4601250022033B8DF89D
:1017F0000720032B05D8DFE803F02462665F2C4640
:10180000F3E700239DF80720CAB902AE04F12007D0
:10181000324620686168083403C2BC421646F7D1DC
:10182000099A002D53D0C2F3080121B96FEA522260
:101830006FEA42220992184602A903F066FE0BB035
:10184000F0BD254BDA6A9107DBD4DA6A002AD8DBCF
:10185000DA6A5200D5D55A69A16942F480725A6198
:10186000BFF34F8FBFF36F8F5A6931F8021C22F418
:1018700080725A61BFF34F8FBFF36F8F4DF60272C4
:10188000914209D09A6AD2B242B101200DF107010A
:10189000FFF764FF0346B5E72368B3E79A6A12F4DB
:1018A0007F4F05D001200DF10701FFF727FFF1E77A
:1018B0009B6AB3F5803FA4D3FFF7F6FEEAE700206A
:1018C0000DF10701E4E700200DF10701EDE722F437
:1018D000FF7222F00102ADE700ED00E0044B5A690F
:1018E00042F010025A615A6922F008025A617047A8
:1018F00000ED00E0EFF30880EFF3098101B57246D7
:10190000FFF75AFF01BD00BF0A4880F30888102086
:1019100080F3118808484FF40061401880F309886B
:10192000EFF314800221084380F31488BFF36F8F14
:1019300003F000FE686A002068390020084B9B68AD
:1019400083420BD1EFF3058343B1064B5A6842F053
:1019500080525A605A6A22F400425A6202F06EBD06
:101960003820002000ED00E011498A684FF0300077
:101970001044EFF3098C80E8F01F102080F31288E8
:10198000BFF36F8F0B4F4FF000664A698A603E606D
:10199000506E094C2060906E0023936680F311888E
:1019A00002F1300090E8F01F8CF3098870470000C6
:1019B0003820002004ED00E0E81E00201EF0040F97
:1019C0000CBFEFF30880EFF30980816911F8021C66
:1019D0000229FFD001B5724603F09DFD01BD00BF95
:1019E00040B2002807DB01234109034A00F01F0031
:1019F000834042F82130704700E100E040B2002807
:101A000001F10101ACBF00F16040064B4FEA01114A
:101A1000C9B2ABBF00F5614000F00F0080F80013C1
:101A20001954704714ED00E0054B064A23F040437B
:101A300023F07F039360BFF34F8FBFF36F8F704727
:101A40000000000800ED00E042F8203C009B0B493C
:101A500042F81C3C019B21F0010142F8183C029B1A
:101A600042F8081C42F8143C4FF0807342F8043CE2
:101A70000023203A02658366704700BF2D150008D9
:101A800000B50B4B15469860426E0A4B0E461A6025
:101A90002C4686F309880020034B984720460021F6
:101AA00000220023014C20474B5500082D1500084B
:101AB00038200020E81E00201022014B1A617047D8
:101AC00000ED00E0002310210348C21801333C2B35
:101AD00082F80013F9D1704700E100E008B5EFF398
:101AE0000583064A103B02EBC30152F833004968F4
:101AF0008847BDE80840FFF7C7BD00BFBC7D0008B0
:101B000008B5024802F01AFFFEE700BFA8890008E6
:101B100008B5024B1B689847002008BDEC1E00204A
:101B2000034B044A1860937843F0020393707047A4
:101B3000EC1E00201000002008B5054803F034FC1E
:101B4000002383F31188BFF36F8F0423184602DF4D
:101B5000AD89000800B50C2205F0FEFF024B1A50BB
:101B600000205DF804FB00BF0C0000002DE9F041EF
:101B7000054600244FF001080E4E0F4F2A78716978
:101B80001319DBB208FA03F301EA03008B4309D10E
:101B9000E3B21344706157F833201AB107EBC30363
:101BA000596890476A780134E3B29A42E6D2BDE8B8
:101BB000F08100BF00040140F01E0020044B1844D7
:101BC00000230133994200F8012BFADC704700BF73
:101BD000C4000020034660B1B0FA80F2C2F11F02D7
:101BE000D2B205498856054A11680B431360FFF7C6
:101BF000F7BEFF22F5E700BFC4000020000401404B
:101C0000024A136823EA000313607047000401408E
:101C1000032921D8DFE801F0020C10190F4B9A6854
:101C200022EA00029A60DA6822EA0002DA6070476B
:101C30000A4B9A680243F5E7084BDA680243DA6018
:101C40009A6822EA00029A607047044B9A6802433D
:101C50009A60DA681043D860704700BF0004014002
:101C600030B5B0B1B0FA80F3C3F11F03DBB20B485B
:101C700050F833408C4204D100EBC3056D689542A7
:101C800005D044B940F8331000EBC3004260002097
:101C900030BDFF23EBE76FF00F00F9E7F01E0020E7
:101CA00060B1B0FA80F3C3F11F03DBB20021044A34
:101CB00042F8331002EBC30251607047FF23F5E78F
:101CC000F01E00200F2300F0030204329200934024
:101CD00043EA9000C3B2064A023352F82320030CB1
:101CE00093FAA3F3B3FA83F302EA1040D8407047A3
:101CF0000000014038B51F4B0D4618680B8814468C
:101D0000C3F30B03182B19D873B3013B172B2BD834
:101D1000DFE803F00D0C1E0C212A182A2A2A2A2A91
:101D20002A2A2A2A2A2A2A0D2A2A2A0D0020206055
:101D30002B68B3F5805F10D2002038BD1C2B13D167
:101D40004008F4E703F011FD88B103F00EFDEEE763
:101D500049F64040EBE70848E9E7C3F313330133A2
:101D6000B0FBF3F02060E7E76FF08500E5E76FF088
:101D70000400E2E7A4000020001BB700F8B53B4FC9
:101D800003F0F5FC384603F0EFFC00F0FDFF384CA3
:101D9000384A63681578C3F30313D35C47FA05F533
:101DA00020FA03F6AE4202D2284601F019F8236861
:101DB00023F480232360236843F480332360236863
:101DC0009A03FCD5636A43F001036362636A9B076D
:101DD000FCD5636803F00C03082B15D12368980722
:101DE00006D4236843F00103236023689907FCD5D8
:101DF000636823F003036360636813F00C0FFBD187
:101E0000636823F0F0036360236823F0807323602A
:101E100023689A01FCD400F031F8236843F0807302
:101E2000236023689B01FCD5636823F0F0036360A3
:101E3000636823F0030343F002036360636803F005
:101E40000C03082BFAD1AE4202D3284600F0C8FF9B
:101E5000094B00201F60636823F4E06343F4806350
:101E60006360636823F460536360F8BD00A24A04B2
:101E700000100240B08A0008A4000020054A536800
:101E800023F47C1343F488135360536823F48003D2
:101E9000536070470010024008B5074805F0BAFCCF
:101EA00038B10648FFF73CFE0448FFF721FB00204D
:101EB00008BD6FF01200FBE73C7D0008C11E000862
:101EC0000A2838B50446074D04D1AB680D212846D1
:101ED0005B689847AB6803485B68E1B29847204667
:101EE00038BD00BF3C7D0008004870470C810008E9
:101EF0002DE9F34743680F1E05461646D3F81890A0
:101F00007DDBBB184B457AD847EA0204C4F30B04C7
:101F1000002C74D1006903F09AFC2146284603F096
:101F2000ECFC4FF0FF3A0446002E45D10121284633
:101F300003F0E3FC002C08BF0446286903F085FC8D
:101F4000204602B0BDE8F08780462E4B5A7882B119
:101F50000AFA02F137EA01010BD101219140B142A5
:101F600007D8B8F1000F1ED098F80110914238BF81
:101F700098460134042C03F10203E7D1B8F1000FB5
:101F800013D00023812298F800102846CDE90033B1
:101F90003B4603F062FC012398F80120044693407D
:101FA0001F44F61A21E09846E3E76FF0150401217B
:101FB000284603F0A2FCC0E7002CF8D12346CDE967
:101FC000004480220621284603F047FC04460028EE
:101FD000EDD1B145B8D10346CDE900008022C7213B
:101FE000284603F03AFC00260446002CDFD14FF4CB
:101FF000FA720023284603F0AEFC044694E76FF023
:1020000015049DE7FE890008004870471481000808
:10201000044BB3F8E0379B020B60002318464B607B
:10202000704700BF00F0FF1F70B50446134B0669F0
:102030001A6842F001021A601A689207FCD5104D26
:10204000284605F0E7FBA8B1AB68311D1B6813B942
:102050006FF0040070BD284698470028F8D1206929
:102060000C300122114605F011FC03F03DFE00EAA0
:10207000E070EFE76FF01200ECE700BF00100240E5
:10208000FC7B000870B5036906461D6849B103F082
:102090002DFE044650B130690C3001F017FF204688
:1020A00070BD2B691B0606D40024F8E72B6943F0AA
:1020B00080032B61F8E7034B6B6003F188336B609F
:1020C000F2E700BF23016745064B186828B94FF4B3
:1020D000807C4FF40060C3E900C00B6001231360F3
:1020E000704700BF841F00202DE9F843D0F804801A
:1020F0001746D0F81090D8F808000D461E4603F099
:102100008AFAB7F5001F044616D12846D8F80840C9
:10211000FFF7D8FD84420CD1294603F07CFA04462F
:10212000FFF76EFD2046FFF7BBFD00212046FFF7BD
:102130006FFD0020BDE8F883B7F5800F20D0B6F121
:10214000806F19D0B6F1C06F18D0B6F1007F1AD1E8
:1021500002264A4620460F49FFF782FDB0B92846BD
:10216000D8F8081003F05AFA20463146FFF750FD20
:102170002046FFF72FFDDCE70126EAE70326E8E724
:102180006FF08500D6E76FF01500D3E76FF00F0012
:10219000D0E700BF0160000838B503690446586005
:1021A0000A4D284605F036FB60B1AB6861681B68D4
:1021B0000C3123B12846984700EAE07038BD6FF033
:1021C0005700F9E76FF01200F8E700BFFC7B00084A
:1021D00000222DE9F347134604468A4211D22BB957
:1021E00054F83230C3F389230132F6E754F8320051
:1021F000C0F389200028F7D098425ED10132914285
:10220000F4D8E3B12E4A13F0010F906940F00100B9
:10221000906192694FEA132002F001020192019A43
:10222000C3F3440200FA02F0264A09BF5368D36997
:10223000034343F0E06316BF03435360D361224F6F
:1022400004EBC106A64201D1002011E0D4E900252B
:1022500012F003090FD145F04105C2F3870AC2F31A
:10226000831257F82280B8F1000F15D16FF01200D9
:1022700002B0BDE8F087B9F1020FEED0B9F1010F5D
:1022800007D115F4C07F0CBF45F0020545F00405E9
:10229000E3E745F00105E0E7404605F0BBFA00281A
:1022A000E4D04B462A4640460AF00F0103F08CFF6B
:1022B000002804F10804C5DADAE76FF01500D7E763
:1022C0000010024000000140A8810008F8B50C464B
:1022D000036941685E682379012B34D09A1E554208
:1022E0005541AD026279022A96BF354F4FF4005C2A
:1022F00037F812C0A279042A28D01BB1023A18BFBD
:1023000001221303E279012A0A680CBF4FF44077D7
:102310000027A642D1681CD121F4B05129430B43B8
:10232000D360136923F4405343EA0C0313614368F9
:102330001A68536923F440733B4353613168BDE825
:10234000F84003F0AABF4FF4C065CBE74FF48053C9
:10235000D8E701F4C0618D421FBFD16821F4C0618C
:102360002943D160426811680A6902F440529445D9
:102370001FBF0A6922F4405242EA0C020A61426815
:102380001168CA6802F4805293421FBFCA6822F4DF
:1023900080521343CB6043681A68536903F4407357
:1023A0009F421FBF536923F440733B43536121682D
:1023B0003368994203D003F070FF23683360F8BD9F
:1023C000C68300082DE9F0418846436898F8065016
:1023D0001E6803695F680B794979012B37D102299F
:1023E0004DD9042D48D0AC1E18BF01244FF4C06253
:1023F000240303238B423FD1002C00F08380002A6A
:1024000014BF03220422AA4236D198F8073063B1E0
:10241000012B31D13E4B9E4207D0A3F574439E421F
:1024200003D003F580639E4226D1F368414623F42E
:102430000053F360FFF74AFFF36843F40053F3607F
:1024400098E8030087E803000020BDE8F081022B34
:102450000AD102292CD9042D0ED0AC1E18BF01249C
:102460004FF480622403C4E702290A4628D9042DC8
:1024700037D06BBB0329C6D06FF08500E5E7254A4E
:10248000042D32F811C0F7D04FF4C062033B022D87
:10249000DBB221D1012BEFD90024BCF5805F2DD018
:1024A000BCF5405F2CD0BCF1000FA2D10123A1E705
:1024B000184A042D32F811C0DED04FF48062E5E7EF
:1024C000144A042D32F811C011D0A3B10022DDE767
:1024D00000224FF4005CD9E7012BCDD94FF4805492
:1024E000DBE7002BC8D14FF480541A4681E7002B5C
:1024F000C2D11A46F2E71A461C46CEE7002379E716
:10250000022377E7002A14BF022203227BE700BFE1
:1025100000380140C6830008F7B5054644680669DF
:102520002948306005F076F918B96FF0120003B051
:10253000F0BD3068E16883681B68002B40D0984785
:102540000028F4DB0021206A01AA03F052FE0028D3
:10255000EDDB019B002219791868FFF739FE00288E
:10256000E5DB6E682B6934685F68E36823F4005329
:10257000E360706805F04EF90028D6D0D6E9010175
:102580008368DB6803B1984704F10C0353E8003F0C
:1025900043F00C0304F10C0141E80032002AF3D1AE
:1025A00039462846FFF792FE337D1BB1636943F03D
:1025B00008036361E368002043F40053E360B6E777
:1025C0006FF05700B3E700BFFC7B00082DE9F34133
:1025D00005694668304C204605F01CF9002857D0A4
:1025E000A368F1681B68002B4FD02046984700284D
:1025F00048DB0021706801AA03F0FBFD002841DBE5
:10260000019B002219791868FFF7E2FD002839DBE9
:102610000126AC680834D5E9023203EBC203A4F109
:102620000802934204D8284603F0DFFF002029E087
:1026300054F8080C05F0EEF850B354F8080C14F8F0
:10264000041C34F8023CD0F810C0DA07DCF8007043
:1026500054BF43F4B01383F4D01323F4801206FA6A
:1026600001FEDB07D0F808804CBF47EA0E0727EAD7
:102670000E07CCF80070D8F800309847002804F115
:102680000804C8DA02B0BDE8F0816FF05700F9E73E
:102690006FF01200F6E700BFFC7B00082DE9F04F59
:1026A000D0F804A080460E461F4691460469DAF829
:1026B00000B08DB012B9002B00F0D380B38898041D
:1026C00000F1B0804FF0FF324FF0FF3304F1100003
:1026D00001F030FC6660D8F81030DFF88CC204AD31
:1026E0000193BCE80F000FC59CE80F0085E80F00C0
:1026F000019AD8F804E01268DEF800509642B388D8
:1027000040F09C80190509D52B6823F44443B9F1A6
:10271000000F00F0908043F440432B60B3882046C4
:10272000C3F34513082B0CBF012302233A46494645
:1027300003F08EFEDBF80060DBF8003006F4444660
:1027400043F04003CBF80030D8F81050286848B167
:1027500083683BB10121083003F033FF2B6818690F
:1027600005F049F82368DAF800509B88D80700F193
:1027700036812F689AF8103007F44447002B00F098
:102780001681B7F5404F40F00181AB68990700F121
:102790000981DAF800309A6812F0700F00F0AD810C
:1027A0009A68520605D5DA680392039A9B680393E8
:1027B000039B6FF00407D8F80430D8F810801D6828
:1027C0002B6803F48273B3F5827F14D1AB681E06C5
:1027D000FCD4D8F8003073B19A6862B1998811F4CA
:1027E000805608D1186905F006F8D8F8000031467F
:1027F000083003F0E6FEAB68980606D5AB68049394
:10280000049B2B6823F040032B60D8F800309B8892
:10281000D9041BD42B6823F040032B602B685A0685
:10282000FCD413E0A369002B7FF44CAF63689E4295
:102830007FF448AF4FE743F400436EE7C3F345121C
:10284000082A12D0102A10D06FF08507236813B120
:102850009B889B0405D40023636004F1100001F001
:1028600035FB38460DB0BDE8F08F1A04ECD43F4874
:10287000DEF80C108368DB6813B96FF00407E5E736
:1028800003AA98470028F8DB0123039A316822FA4B
:1028900003F0884205D90133092BF8D16FF01507F1
:1028A000D4E72A680CA922F040022A602A6801EBCA
:1028B000830353F8243C22F0380213432B60B3887F
:1028C0009B0703D42B6823F0020302E02B6843F03C
:1028D00002032B60B38813F0040F2B6814BF43F07E
:1028E000010323F001032B60B38813F4006F2B68FE
:1028F00023F4444304D0B9F1000F32D043F44043F1
:102900002B60B38813F0100F2B6814BF43F08003C3
:1029100023F080032B602B6823F400532B60B368F3
:1029200033B32B6843F400732B606B6823F004030C
:102930006B60B38813F0010F2B6814BF23F482730C
:1029400043F482732B60B388C3F34513082B2B68C1
:102950000CBF23F4006343F400632B60019B1E60F3
:10296000DCE643F40043CBE740800008FC7B000832
:10297000B38813F0010F2B6823F40073D4D143F410
:1029800080232B606B6843F00403D1E7AB68DA0760
:1029900003D52146284603F0D2FDB7F5004F7FF45A
:1029A000F4AEF6E62146284603F081FDF1E6B7F5E0
:1029B000004F08D1DAF800008368DD07FCD5214616
:1029C00003F0BDFDE5E6AB689B07FCD52146284634
:1029D00003F06DFDB7F5404F3FF4DBAEEAE7AA68C0
:1029E000900767D5A26C002A64D0C3F34513082B67
:1029F000626C4AD113782B73A36C9BB1013BA36427
:102A0000002B3CD1636B08336363A36B013BA3636F
:102A1000012304F1480204F1380104F1340003F009
:102A200001FD6064AB68D9077FF5B3AEE36C002BA2
:102A30003FF4AFAE226D002A3FF4ABAE226892881D
:102A4000C2F34512082A41D12A7B1A70236D002B4C
:102A50003FF49FAE013B2365002B30D1E36B08337D
:102A6000E363236C013B2364012304F1500204F16E
:102A7000400104F13C0003F0D5FCE06489E6636C9E
:102A8000002BCFD001336364CCE71388AB81A36CF8
:102A9000002BC7D0013BA3643BB9636B083363636E
:102AA000A36B013BA3630223B3E7636C002BB9D094
:102AB0000233E8E76B6823F080036B60B2E7E36CF6
:102AC000002B3FF466AE0133E36462E6EA681A80E5
:102AD000236D002B3FF45DAE013B23653BB9E36BF7
:102AE0000833E363236C013B23640223BDE7E36CFB
:102AF000002B3FF44EAE0233E6E7B6F5404F18D157
:102B0000A26C92B9226D82B19A681706FCD41A6839
:102B100022F040021A601A6822F4444242F4004251
:102B20001A601A6842F040021A60DBF8006006F48E
:102B30004446A36C002B7FF415AE276D002F7FF465
:102B400011AE38E64FF0E02310B50F499C691A69C1
:102B500008689B690D4902F4803234B993B9034681
:102B60004AB90A681044C01A10BD002B08BF0346BA
:102B70000AB9A342F5D90A6802440A604FF0E0227C
:102B80001269EEE70446F3E71C200020182000201D
:102B900010220A4B002083F823204FF4E152084B07
:102BA0001A60084B41F61F4218604FF0E0235A614B
:102BB00098611A6942F007021A61704700ED00E05F
:102BC0001C20002018200020684620F007018D46B8
:102BD00019B5FFF7B7FF1149114B0868D3E9004257
:102BE000001942F10002C3E9000200230B604FF418
:102BF000E1530C4AD2E90041001BB0FBF3F0434320
:102C00001B1941F10001C2E9003101F013FEFEF78A
:102C10003BFDBDE819408546704700BF18200020E5
:102C2000F8000020F00000202DE9F041DFF8E080FE
:102C300099B1421C0BD14FF0E022136923F001033C
:102C400013614FF07F43C8F80030BDE8F081D8F839
:102C50000060012807DC00270BE0431CD8F8006067
:102C6000F7D140F6191040F61A139842A8BF18463B
:102C7000471EEFF31185102383F31288BFF36F8F84
:102C8000FFF760FF4FF0E023224C9969D4E900235D
:102C900080184FF0000243F10003C4E900031E4B0B
:102CA0001A601E4B1A68831A2ED44FF4E15C0CFB99
:102CB000073303F5E0531F33B3FBFCF7131A0CFB88
:102CC0000733B3F5806F38BF4FF48063144A9342E3
:102CD00028BF13464FF0E022C8F80030013B90694E
:102CE0005361002381429361A1EB000338BF9B191C
:102CF000D4E900125B1842F10002C4E9003285F306
:102D00001188BFF36F8FA0E74FF48063E2E700BF45
:102D10001C200020F800002018200020F0000020D7
:102D200020DFFF0038B5EFF31185102383F31288FD
:102D3000BFF36F8F084B1C68084B1B68E41AFFF742
:102D400001FF85F31188BFF36F8F4FF4E1532044E7
:102D5000B0FBF3F038BD00BFF8000020F000002009
:102D600038B5EFF31185102383F31288BFF36F8F0B
:102D7000044B1C68FFF7E6FE85F31188BFF36F8FE5
:102D8000204438BDF80000200F4A536803F00C01BE
:102D9000042914D0082914D10C48C3F38341DB0360
:102DA000405C09D553680A4AC3F340435043094A7B
:102DB000D35CB0FBF3F07047074B584370470448AF
:102DC00070470648704700BF00100240C28A0008E2
:102DD000001BB700C08A000800093D0000127A00FD
:102DE000D8B10F4B984216D80E4B984294BF002092
:102DF00001200D4A136823F007030343136013688F
:102E000003F0070398421CBF136803F00703C01ABE
:102E100018BF012070470220EBE70120704700BF78
:102E2000006CDC0200366E0100200240044B1B687F
:102E3000584043085B4240421843C017704700BFE8
:102E4000202000208842F0B504D00025084F043827
:102E5000AA4200D1F0BD3E6850F8044F5E4024EA1B
:102E6000060451F8256001351E4034430460EFE745
:102E7000202000202DE9F04F8DB01D46189B834681
:102E8000B3F12A3F8A46179F1A9E059240F08D8023
:102E90003946169803F032FC012838BF0120470953
:102EA00000F01F044FF001097B01502B34BF4B464B
:102EB00003230A9309FA03F30B930A9B059805FA77
:102EC00003F306EB8303069303EB8503079303F0F9
:102ED000F1FD4FEA8508424600210890304604F093
:102EE0000AFE079BC6F800900393089B3146CDE984
:102EF0000153059B3046199A009306EB08092B46AF
:102F000003F0E9FD51464246484604F0E6FD02233F
:102F1000494609930B9B099A934248D14246314650
:102F2000584604F0DAFD4FF00009CA46079B5A469E
:102F30000393089B5946CDE90153059B58460093DE
:102F40002B4603F0C8FD002C47D11F24013F169BE0
:102F50000AF1010A53F82730E34003F0010343EA82
:102F600049090A9B534503D0002CDFD1002FDDD146
:102F7000189BB3F12A3F32D1424609FB08610698FB
:102F800004F0ABFD079B59460393089B5846CDE9D7
:102F90000153059B069A00932B4603F09CFD002CE1
:102FA000C1D1BFB90DB0BDE8F08F00247AE7079B0F
:102FB00001EB080A0393089B4A46CDE90153059BA0
:102FC000504600932B4603F086FD099B5146013382
:102FD00009939FE7A146A246A8E7013CB7E731461F
:102FE0004FF0000A0A4B2A4618681B68584080EACE
:102FF000090080EA0A00FFF719FFC3430698FFF7AC
:1030000021FF099B0AF1010A53454144EAD1B9E77E
:1030100020200020054B01311B680132434022EA89
:10302000030208400243501E00B2704720200020D7
:103030002DE9F04F834699B00F46184600211646F9
:10304000039303F0B9FF002800F0898100240125D3
:10305000774B30461493039915ABCDE90B45CDE979
:103060000D45CDE90F45CDE91145139303F02DFF33
:10307000A04228DABBF1000F05D1E7B900242046B1
:1030800019B0BDE8F08F2146584603F0A6FE04466D
:103090000028F2D00BA803F0EDFD0DA803F0EAFD27
:1030A0000FA803F0E7FD11A803F0E4FD0C2115A81B
:1030B00000F014FBE3E73146384603F059FE0446BE
:1030C0000028E7D1DAE731460BA803F051FE0446A9
:1030D0000028DFD103990DA803F04AFE044600281A
:1030E000D8D1F1880FA80231ADF83850ADF8305082
:1030F00003F0CEFD04460028CCD101460FA803F012
:103100006CFE04460028C5D1F18811A8023103F0F5
:10311000BFFD04460028BDD10DA803F08AFE00F0D3
:103120001F001F2872D0C0F11F0319460BA801937E
:1031300003F0A5FE04460028ACD101990DA803F0C8
:103140009EFE04460028A5D1BDF83250BDF83A8055
:103150000DA8A5EB080A4FEA4A19494603F08FFE6D
:103160000446002896D14FEA8A0A0DA90BA803F05D
:10317000DBFE00284CDA49460DA803F09DFE04460C
:10318000002887D108F1FF3305939B0005F1FF3A32
:10319000069305F1804508F18043023B013D9B0009
:1031A000A5EB08050893AB000293059B9A4541D80F
:1031B000BBF1000F0CD058460FA903F0D9FD002831
:1031C00040F0C980039AB38892885343ABF8043027
:1031D000002F3FF45FAF01990BA803F06DFE0028AC
:1031E00040F0B980B3880BA93846ADF8303003F011
:1031F000BFFD0146002840F0B080384603F0DCFEF9
:1032000000287FF447AF0123BB8043E701949BE78D
:103210000F9A0BA952F80A300846013342F80A30D7
:103220000DAA03F0AEFF044600289ED032E700BF8F
:10323000010003000D9B069A04931344DDF82C90C3
:103240000793049B4FEA8A089A5859F82A10A8F164
:1032500004030F9D0993029B91421D4476D2A8F16D
:103260000400002359F80000FCF762FF002914BF96
:103270004FF0FF330346BAF1010F2B600EBF00235E
:1032800009EB080353F8083C1593A8F1040359F817
:103290000330169359F80830DDF8108017932B6827
:1032A00001332B60089B98442B680021013B2B6065
:1032B00011A803F092FD00284DD1059B002B48D0AA
:1032C000D8F80020119B11A91A60079A08461268C5
:1032D0005A602A6803F059FF00283CD113A911A8AD
:1032E00003F022FE0028DFDC2A680DA911A803F0F4
:1032F0004CFF80BB029B11A84FEAC308414603F074
:10330000BEFD40BB0BA9084611AA03F03AFF0146D7
:1033100018BB0BA803F050FE002812DA0DA911A863
:1033200003F026FDB8B9414611A803F0A8FD90B9F5
:103330000BA9084611AA03F021FF60B92B68013BD5
:103340002B60029B0AF1FF3A043B2DE74FF0FF335D
:1033500091E7059AB6E704469CE60C469AE66FF0BC
:103360000B048CE6F0B5114C002B14BF9C468C4628
:10337000246800234440E443059F03F1040E77458D
:1033800002D2BB4209D3F0BDD5585CF803600540BA
:1033900026403543CD507346EFE7D55C1CF80360FB
:1033A000054026403543CD540133EAE72020002074
:1033B0000928024818BF0020704700BFD28A0008C1
:1033C00001680E4A0346914215D1C169A2F110224B
:1033D000A2F1EF1291420ED18268012A0BD8C26885
:1033E00012B101698A4206D0586928B19B691B1A3B
:1033F0005842584170470120704700BF55AA00FF4E
:1034000070B50D4B9E68A6B13046FFF7D9FF044654
:1034100078B9F3686BB935690DB9204670BD284697
:10342000FFF7CEFF28B9EB68B34202D12E462D69D3
:10343000F2E70124F1E700BF242000202DE9F84342
:103440003F4F3C68D4B1BC68C4B100284AD00029C1
:1034500048D001FB00F5B5FBF0F0884242D1281DB1
:1034600040D8A9070DD025F003060436FC6803E018
:103470006368B34238D2A469002CF9D12046BDE874
:10348000F8832E46F2E7FB6041E006F12001631865
:10349000203A5A600022C3E902242A4822691A61AC
:1034A00060502949D96102B1D36062695A61A1694A
:1034B0009961AAB193619A6902B153614FF0010910
:1034C00023610023C4E90169C4E905333B69DB07D3
:1034D0002ED5FFF795FF58B31C4B48461B6826E0D6
:1034E000FB60E8E70024C9E7A3681BB1174B012084
:1034F0001B689847626804F12008921B232AC4D8ED
:103500000123A360D4E90523002ABCD09361A369F9
:103510000BB162695A610023C4E905333B69DA07DC
:1035200006D5FFF76DFF18B10120084B1B689847BF
:103530002A4600214046444604F0DDFA9EE700BFDB
:103540002420002055AA00FF669911EEAC0000204F
:1035500070B50546002800F08880444E3368002B83
:1035600000F08380B268002A7FD0834203D872685B
:103570001344984203D33E4B01201B689847A5F1A2
:1035800020042046FFF71CFF18B1394B01201B68AF
:10359000984755F8183C012B03D0354B01201B6888
:1035A0009847002345F8183C55F8143C3BB39A68FB
:1035B0002ABB55F81C2C02F120015A680A445A60B3
:1035C00055E905321A6155F8145C2B6903B1DD60C9
:1035D00020220021204604F08EFA286910B1836869
:1035E000002B2ED033699B073FD5FFF709FF00283A
:1035F0003BD0BDE870401E4B01201B68184755F8B2
:10360000100C00282AD0836843BB426863681344C7
:103610002033636003692361D4E905239AB9CBB9E8
:10362000436963618269A261B3B19C61A36903B11B
:103630005C61236903B1DC602022002104F05BFAA5
:10364000D0E72C46E1E79361A369002BE8D06269DB
:103650005A61E5E7F360F7E7F460E7E7F36845F8F8
:10366000083C03B15C61F460BCE770BD242000201D
:10367000AC00002038B50C46142200210546134842
:1036800004F039FA1249134800F040F8232C1CD9F1
:1036900015F003031FBF043CE418C3F10403ED1845
:1036A00022460021284604F026FA084B0A49C3E9BD
:1036B0000054203C9D606C609A6811609A68A1F18A
:1036C0001021A1F1EF11D161DA6038BD2420002072
:1036D000513500083D34000855AA00FF10B50A46D0
:1036E000044619B1024B00211B68984710BD00BF6A
:1036F000A8000020014B1B68184700BFB400002041
:10370000014B1B68184700BFB0000020024B186037
:10371000024B002019607047B4000020B000002068
:10372000F8B500F108064768044630460D4603F038
:1037300084FB87424BD16368B3F5806F47D8002183
:10374000304603F039FC002841DD0021304603F00B
:1037500060FBE0B345B9294604F1100003F02CFCEE
:10376000002834DD0020F8BD04F1200500212846A2
:1037700003F022FC00282ADD0021284603F049FB43
:1037800028B304F128050021284603F015FC002881
:103790001DDD0021284603F03CFBC0B1002104F1EF
:1037A000100003F009FC002811DD002104F13000B5
:1037B00003F002FC00280ADD002104F1380003F0C8
:1037C000FBFB002803DD002104F14000C6E70148AF
:1037D000C9E700BF80BFFFFF012970B505460E464F
:1037E000144601D9074870BD03D00020C5E91C6408
:1037F000F9E7002AF9D01046FFF7DAFD0028F4D1E6
:10380000F0E700BF00BFFFFF70B500210446FFF7DF
:1038100087FF054610B10E4D284670BD04F108061D
:10382000304603F006FB7F28F5D9103429462046A0
:1038300003F0EFFA0028EED0204603F0FAFA012850
:10384000E9D93146204603F06FFB0028E4DBE2E7CC
:1038500000BEFFFFF0B50C4685B0002105461646B8
:10386000FFF75EFF002839D102A803F0FEF92146D8
:103870006A6802A803F0E7FA044618B102A803F048
:10388000F9F90CE005F10804214602A803F04CFB0D
:10389000002807DB02A803F0EDF96FF00304A4F59C
:1038A000854418E005F1480302A96F6808460093B3
:1038B00005F11002234603F0B8FD04460028DDD1CF
:1038C0003A46314602A803F0D4FA044602A803F0AF
:1038D000D1F9002CE3D1204605B0F0BD004CFAE749
:1038E00080BFFFFF03460846C1B9C3E910110D4A66
:1038F0000D49DFF838C0C3E912120D4A0D49C3E97A
:1039000014C20D4AC3E916120C4A1A6602F1745227
:10391000A2F52302A2F692425A6670476FF0730036
:10392000704700BF85AE67BB67E6096A72F36E3CFD
:103930003AF54FA57F520E518C68059BABD9831F7A
:103940002DE9F04F0446CFB0039100F1480346AD96
:1039500000F168062A4618685968083303C2B34262
:103960001546F7D1DDE94883DDE94B96DDE94615DB
:103970004FF0000C01933E4BDDF834B14A9804AA95
:103980000293BCF10F0F5BD8039B53F82C301BBA8A
:103990004FEAF02E86EA0907DDF808A08EEAB01E8D
:1039A00007408EEA706E774077445AF804EB9360D4
:1039B00077443B4445EA010E4FEA7137CDF808A041
:1039C00087EAB1070EEA080E05EA010A4EEA0A0E76
:1039D00087EAB15777440CF1010CDDF804E05B4451
:1039E000BCF1400F9E44B3463B4402F10402CDF8C3
:1039F00004801ED1CDE94C96CDE94AE0CDE9485886
:103A0000CDE94631CDE9043745A904F144036434D6
:103A100053F8042F51F8040FA34202441A60F7D15F
:103A200004A84FF49471FFF759FE00204FB0BDE891
:103A3000F08FA8464E460D46814619467046A0E7CF
:103A4000136852F834AC4FEAF34E8EEA734E52F8D4
:103A5000387C8EEA932E52F8143C3B444FEABA4726
:103A600087EAFA17734487EADA073B4490E700BF16
:103A700088820008F0B585B06E4681680546103929
:103A800021F0070401F0FFFC32460A4B03F1100C51
:103A9000374618685968083303C763453E46F7D16F
:103AA00010232146284601F0BDFC003818BF012034
:103AB00005B0F0BDCC83000830B50D46816887B0F5
:103AC000102302AA1039044601F097FC002802DAFC
:103AD000012007B030BD1022204602A903F0E7FD07
:103AE00000283AD110221E4902A804F00CF8002840
:103AF0000CBF012302232B70204603F0C4FD0123D9
:103B000001460DF10702204601F077FC0028DFDBBB
:103B10009DF80730204603F00F021B096A702B71D5
:103B200001220DF1070103F0C2FD10B96B78042BDF
:103B300003D901236B7000232B71A2682046183A29
:103B400022F00702083AA91C03F0C4FD0028BFD1E7
:103B50002046E91C03F016FEBBE70323CBE700BFBA
:103B6000CC830008F0B5354F85B046000546694660
:103B700057F8260003F00CFE044610B1FF2005B0F4
:103B8000F0BD013657F8260002A903F001FE012816
:103B900037D12A4649212A4801F014FC294B8DF8D7
:103BA0000C40029300229DF800609DF80870264C9E
:103BB0003146207803F06DFD50B33946607803F04C
:103BC00068FD28B3A378042B03D09DF80310994215
:103BD0001ED1E378042B03D09DF80B10994217D126
:103BE0002379042B10D16279022A1DD1174B184872
:103BF0002A46492101F0E6FB6079831E022BBED9DB
:103C0000BCE70028CED0B9E79DF802109942EAD06F
:103C10000132032A04F10604CAD10E482A4649217A
:103C200001F0D0FB0120AAE7032A05D00A4B0B497B
:103C3000042A08BF0B46DAE7094BD8E78883000857
:103C4000E68A0008030103037B8B0008DA8A000878
:103C5000318B0008558B000850870008DF8A000868
:103C6000D58A000838B5EFF31185102383F3128845
:103C7000BFF36F8F064B9C6803F0DFFD85F311885F
:103C8000BFF36F8F2046BDE83840FDF757BE00BF39
:103C90003820002038B50A4B53F82040013053F843
:103CA0002050A54200D838BD606830B1037FDB07E3
:103CB00001D403F0C5FD0834F3E723689847FAE719
:103CC00090830008012270B5294B032086B01A703A
:103CD000FFF7E0FFFDF7A6FC0420FFF7DBFF254C14
:103CE000254D2646AE4204F1300410D300F0ACFA64
:103CF000204C224EAC4226D300F0BAFAFCF782FBED
:103D00001F4A137B23F00103137306B070BD54F8F0
:103D10000C3C059354F8103C049354F8143C039362
:103D200054F8183C029354F81C3C019354F8203C7E
:103D3000009354E90A2354E90C0100F021F954F8E6
:103D4000303C5E65CDE7D4E90A23B3F1FF3F08BFFD
:103D5000B2F1FF3F05D052EA0301206803D100F021
:103D600043FB3034C6E73146183000F0D3FCF8E7A7
:103D7000643900209C7F00089C7F0008717900084E
:103D80007001002008B50348034A0021121A03F00D
:103D90006EFD08BDF000002068390020702370B56A
:103DA000134E012203FB0066002386B0CDE90423F5
:103DB0000F220193CDE9023214230E4D0E4903FB6D
:103DC0000055044601EB00214FF4807230460B4B46
:103DD000009500F0D5F8737B2C7423F00403737303
:103DE000074B013403EBC423EE606B6006B070BD7B
:103DF000000100203820002068410020777800086A
:103E000068390020BFB50020FFF744FF274B83F33C
:103E10000888274C00256369264F43F400736361CB
:103E2000F02384F82230E57725766576A57684F848
:103E30002050636A43F4E0236362FDF74FFDFDF712
:103E40003BFE4FF0FF331C48A362E36200F0D0F862
:103E500003F0DFFCFDF796FB0120FFF71BFF0220BC
:103E6000164CFFF717FF00F037FA154B15495C6148
:103E7000154B4FF42052059301232046CDE90353FF
:103E8000CDE901553B46009500F07AF80646627B85
:103E9000204622F00402627303F03EFD2846FFF73D
:103EA0007DFF3A4631462046FDF7EAFD6841002095
:103EB00000ED00E0C53C0008E0010020700100209A
:103EC00038200020684200208D8B000870B5EFF389
:103ED0001186102383F31288BFF36F8F0468A0420A
:103EE0001AD0CCB1D4E90032002513605A60637B4C
:103EF000C4E9005523F002036373A56004F11800C0
:103F000003F079FD2046E56603F006FD3146BDE885
:103F10007040074800F072B9D0E902329A4218BFE7
:103F20000133836086F31188BFF36F8F70BD00BFCC
:103F30006539002013B5EFF31181102484F3128842
:103F4000BFF36F8F846844B1013C846081F31188B2
:103F5000BFF36F8F002002B010BD52EA030406D1F8
:103F600081F31188BFF36F8F6FF00F00F3E7CDE996
:103F700000230246014800F01FF9ECE765390020F4
:103F80002DE9FF41984600F15803C0E916330E9B16
:103F9000002603730423D51D437325F007050D9BED
:103FA0000D440F4683732946C0E906668660C673D2
:103FB0000446FDF749FB0C9B073002930B9B20F056
:103FC000070001930A9B2D1A00932A46434639465F
:103FD0002046FDF739FD054B66659B6803B11B6EF6
:103FE0002846236604B0BDE8F08100BF38200020D9
:103FF00040F20113838100230366014B98607047F0
:10400000382000206FF00A01084A9368D9660849F1
:1040100098664B6843F080534B60002383F311880C
:10402000BFF36F8F9368D86E704700BF38200020B1
:1040300000ED00E070B590F90D20437B002A36DBDF
:10404000D90634D11B4C63F07F032246437352F8E8
:10405000183FE169934207D1C0E900210860E0619F
:1040600011E09942F8D01B68002BF5D090F90E5062
:1040700093F90E60B542F4D0AE42F2DD5968C0E962
:10408000003108605860A569954200D005B9E5681F
:10409000A3685A7BD20604D1DA897F2A01D9AA699A
:1040A00032B1AB4202D0284600F092FA656170BD91
:1040B0006361FCE73820002038B590F90D200146F7
:1040C000002A437B04DA03F07F03437303F0EAFB27
:1040D0000D4D2A4652F8184FAB68944200D004B9EF
:1040E000EC688B4207D05A7BD20604D1DA897F2A4A
:1040F00001D9A2692AB1A34202D0204600F068FA91
:1041000023466B6138BD00BF38200020B3F1FF3F6C
:1041100008BFB2F1FF3F03D00249183000F0FABAED
:10412000704700BF7179000870B590F90D20014605
:10413000002A437B04DA03F07F03437303F0B2FBEE
:104140001C4C4B7B224663F07F034B7352F8183FA5
:10415000E069934207D1C1E900200160E16111E00B
:104160009842F8D01B68002BF5D091F90E5093F9C6
:104170000E60B542F4D0AE42F2DD5868C1E90030BD
:1041800001605960A569A368954200D005B9E5684A
:104190008B4207D05A7BD20604D1DA897F2A01D913
:1041A000AA692AB1AB4202D0284600F011FA2B4688
:1041B000636170BD38200020F8B5DDE906670D4B5E
:1041C0000C46986811460C4A1060EFF311821022D9
:1041D00082F31288BFF36F8F9D68284603F074FB4B
:1041E000284632463B46FFF791FF2046BDE8F8409F
:1041F000FFF708BF382000205820002049B9EFF30E
:10420000058030B9054B5A699B689A4201D0FFF787
:10421000F9BE81F31188BFF36F8F704738200020FB
:10422000034648B9EFF3058232B9064A51699268EC
:10423000914201D0FFF7E6BE83F31188BFF36F8F81
:10424000704700BF38200020EFF31181102383F363
:104250001288BFF36F8F054B9A68D37B013BD373F2
:1042600081F31188BFF36F8F704700BF38200020A3
:1042700070B5EFF31186102383F31288BFF36F8FAD
:10428000144DAB68DA7B0132DA732A4652F8184FC4
:10429000944200D004B9EC685A7BD20604D1DA8982
:1042A0007F2A01D9A2692AB1A34202D0204600F098
:1042B0008FF923466B6186F31188BFF36F8FEFF39D
:1042C0001180102383F31288BFF36F8FBDE8704015
:1042D000FFF7A6BF38200020024B03F11802C3E904
:1042E000062270473820002070B5EFF311861023A6
:1042F00083F31288BFF36F8F1B4CA168E0690B68D2
:10430000814214BF1A46002249680B605960A368B5
:10431000E1692AB9154AC3E900210B60E3610CE0A9
:1043200093F90E0092F90E50A84218D0854216DD7E
:104330005168C3E900210B605360A5690B4B9D4296
:1043400000D005B9E568A3689D4202D0284600F078
:104350003FF965613046BDE87040FFF753BE8A42C1
:10436000D8D01268D5E700BF3820002050200020A8
:10437000F8B550EA010306460C4603D1FFF7B4FF37
:104380000020F8BDEFF31187102383F31288BFF3E9
:104390006F8F124D124BA8681860FFF78DFEA8684A
:1043A000234632460F49183000F0B4F9AA68044693
:1043B000537B384643F004035373FFF723FEAB6887
:1043C000D3E90A23B3F1004F08BF002AD8D103F084
:1043D0003AFB201A20EAE070D3E700BF3820002023
:1043E000582000207179000838B50446EFF3118594
:1043F000102383F31288BFF36F8F437B5B070FD5C6
:10440000183003F0F8FA637B204623F0040363734B
:10441000FFF710FE2946BDE838400448FFF7EEBE1E
:1044200085F31188BFF36F8F38BD00BF6539002059
:10443000014B9868704700BF382000202DE9F843F1
:104440000446077BEFF31185102383F31288BFF333
:104450006F8F437B190705D585F31188BFF36F8FE5
:10446000BDE8F883D90943F008025AD14273A36822
:1044700013B1204603F01EFA04F1180003F0BBFA52
:10448000A66D04F15808B04511D04FF0000976B17F
:10449000304603F00FFA06F1180003F0ACFA30468C
:1044A000C6F86C90FFF7C6FDA66DB045EFD1DFF8FA
:1044B000B880D8F808309C423BD1EFF30589B9F1B8
:1044C000000918BF4FF00109D8F81860274A964232
:1044D00000D00EB9D8F80C60B34202D0304600F0DC
:1044E00077F8C8F81460B9F1000F02D02048FFF740
:1044F0007FFDD8F808309C4231D1EFF3058373BBC0
:10450000227BD20718D42846FFF77CFDFB07A7D5EE
:10451000002383F31188BFF36F8F0423184602DF53
:104520009EE703F07F0343F00803437303F0BAF9F7
:104530009DE74FF00009C7E785F31188BFF36F8F40
:1045400083F31188BFF36F8F0423184602DFEFF364
:104550001180102383F31288BFF36F8FD4E785F3A4
:104560001188BFF36F8FD1E7382000205020002042
:10457000E00100200122044BC01A044BC010584334
:10458000034B1A54704700BF50020020ABAAAAAADE
:1045900065390020C3897F2B12D80A4B1B6863B191
:1045A000094B90F90E201B689A4209DB437BDB061E
:1045B00006D1064BC31A18BF012303F00100704750
:1045C0000023FAE7B80000205C2000200001002052
:1045D00070B50E4B0E4C1E7C182303FB064405469B
:1045E000204603F008FA00220A4B28469A55FFF7A6
:1045F000D1FF48B1084B2046BDE870401A68074912
:10460000013AD31700F086B870BD00BF38200020F3
:104610005002002065390020B800002075450008D0
:1046200038B5EFF31185102383F31288BFF36F8F32
:10463000104B114A9C681068A04206D1FFF7C8FFD2
:1046400085F31188BFF36F8F38BD00211B7C11608B
:104650000A4AD35C002BF3D02046FFF79BFF0028CB
:10466000EED0637BDB0602D12046FFF75DFD2046DE
:10467000E4E700BF382000205820002065390020E2
:10468000074808B5074A0849121A03F0F2F8BDE8CE
:1046900008400648064A0749121A03F0EAB800BF64
:1046A00000000020F00000209C8B0008000000208B
:1046B000000000209C8B0008024B1868984208BF3D
:1046C00000207047BC000020034B1B680BB9FEF7AD
:1046D00029BB0020704700BF6020002030B570B1BA
:1046E0000B4B5B6898420AD0036843B1D3E90421BD
:1046F000D0E90445121941EB0501C3E90421D0E9D1
:10470000003213605A600023C0E9003330BD00BF9F
:10471000BC000020B3F1FF3F08BFB2F1FF3F2DE91D
:10472000F84F0446994615461F467AD08160EFF34C
:104730001188102383F31288BFF36F8FB9F1000F34
:10474000DFF8E4A020DBFFF7BFFFDAE9002701353F
:1047500049F100092D1849EBE07306464FF00109B5
:10476000C4E90453AD1843EB0707FFF7A5FF034661
:10477000DFF8B8E0DEF804A0EBB9C4E900EACAF853
:104780000040CEF8044028E06FF00103DAE900129F
:104790005B1A4FF0FF3161EB02025B1B62EB090217
:1047A000012B72F10001BCBF012300224FF0000970
:1047B000C0E90432D9E7D3E9041CD4E904208A42D1
:1047C00070EB0C0B24DA891A5A686CEB0000C3E911
:1047D0000410C4E9003214605C60FFF76DFF84428E
:1047E0000ED1134B1B685BB9B9F1000F02D1FFF773
:1047F0006BFF0646304603F0E7F80021FEF714FA97
:1048000088F31188BFF36F8F28463946BDE8F88FCB
:10481000521A60EB0C009A45C4E90420ADD01B6825
:10482000AAE700252F46EFE768020020BC00002021
:10483000602000202DE9F047EFF31185102383F36A
:104840001288BFF36F8FDFF8A0900026C9F8000030
:104850000027FFF731FFDFF89480D9F80030D8E95E
:1048600000ECD91750B1D0E90442A34271EB020A1F
:104870001BDAE41A62EB0102C0E90442002413EBE4
:104880000E034CEB01012046C8E90031C9F8004095
:1048900003F09AF82146FEF7C7F985F31188BFF3B4
:1048A0006F8FBDE8F047FFF7BBBE14EB0E024CEB79
:1048B000E473C0E90467C8E90023FFF70FFF85F33D
:1048C0001188BFF36F8F83689847EFF3118510232A
:1048D00083F31288BFF36F8FD9F800301B1BC9F820
:1048E0000030FFF7E9FEB8E76020002068020020F2
:1048F00010B5EFF31184102383F31288BFF36F8F89
:10490000FFF7E2FE0346054AD2E90001181841EB21
:10491000E37184F31188BFF36F8F10BD680200202C
:1049200008B5054B044613B10021AFF3008000F039
:104930006FF92046FDF7E4F800000000F8B50E4BD3
:1049400006461D68AB789B0712D56F6816F8014BB9
:1049500029462CB90A20B847002805DB204609E083
:104960002046B8470028F1DAAB7843F00403AB7077
:104970004FF0FF30F8BD00BFDC8000082DE9F04F9C
:10498000837815469A070746D0F8048085B040F131
:10499000B580002691F800B0BBF1000F00F0B080A8
:1049A000BBF1250F05D001F1010A01363946584601
:1049B00060E091F801B001F1020ABBF1250FF4D0DB
:1049C000002401211F2C26D8ABF12002102A10D977
:1049D000ABF13002092A37D81AF801BBBBF1000F3E
:1049E000F0D139462520C0470028C0F28380023626
:1049F000DCE7854B01FA02F01842EDD1032A64D0BE
:104A0000ABF13002092AE7D9BBF12A0F11D10435E5
:104A100044F02004E0E77F2C16D8ABF13002092ADD
:104A2000DAD9BBF12A0F0CD1630605F10405D3D402
:104A3000EEE7BBF12E0F0AD1600661D444F04004CA
:104A4000CAE7BBF12E0FF7D0BBF16C0F2CD0BBF136
:104A50006C0F13D8BBF1680F2DD0BBF16A0F31D0AA
:104A6000BBF14C0F2ED0BBF1630F0DD1394615F8B9
:104A7000040B0136C047002836DA3BE0BBF1740F67
:104A8000AAD0BBF17A0FA7D0ABF16402112A00F2D1
:104A90009080DFE802F0398E8E8E8E398E8E8E8E6B
:104AA0008E98888E8E1C8E72220648BF44F4007445
:104AB00044F0800490E7E30548BF44F4007444F4F4
:104AC000807489E744F4207486E7102484E72C6816
:104AD0004E4B002C08BF1C46A1464B4619F8010B53
:104AE00020B9341B1E190435514653E73946C047D7
:104AF0000028F2DABB7843F00403BB704FF0FF36B6
:104B0000304605B0BDE8F08F20062DD5A10543BF86
:104B1000073525F0070555F8080B55F8040B0A2250
:104B20000028B8BF44F4806424F01004B8BF4042A9
:104B3000A4B20DF10409494602F0F5FFE206A0EB2C
:104B400009094DD539463020C0470028D2DBBBF1DA
:104B5000000F57D0394658460236C0470028C9DBF7
:104B60004C460DF1040B49E0E20555F8040BD6D58F
:104B7000A3054CBF40B200B2D1E70A2224F01004D2
:104B8000A4B2200623D5A10543BF073525F00705AC
:104B900055F8080B55F8040B10B924F01004A4B212
:104BA0000DF10409C7E710224FF0780B44F0100410
:104BB000E7E74BF02002782A7FF413AFCBF17802BD
:104BC00042F01002DDE708224FF0000BD9E7E305C1
:104BD00055F8040BE0D5A1054CBFC0B280B2DBE7AD
:104BE0006305BDD539462D200136B6E7013C39466F
:104BF0001BF80400C0470028FFF67CAF002CF5D15D
:104C00004E4471E70136ABE781280100928B000822
:104C100038B5074D074C641BA41024B9064B0BB1E3
:104C2000AFF3008038BD013C55F824309847F4E7D5
:104C3000000000000000000000000000704700209D
:104C4000704730B500290446154685B011DB8368EE
:104C50008B420ED96368C068194401AA00F0B9FDFF
:104C600028B96268019B9B1A2B60029B6B6005B0A0
:104C700030BD6FF02100FAE72DE9F7430E461746E5
:104C80009946044628B94FF0FF38404603B0BDE8C6
:104C9000F0830029F7D0002AF5D0CB680D8938467B
:104CA0001D44042329460DEB030200F0A6FB8046B9
:104CB0000028E8D146F60812BDF804107389914225
:104CC00025D1BDF806109942DDD1042338460DEBFD
:104CD0000302294400F091FB0028D4D146F60713C3
:104CE000BDF804209A42CED1C4E900679DF828306F
:104CF000A4F80890A3727389BDF806202B44E360E2
:104D0000738913442B44043563612561BDE7002B8F
:104D1000E4D0B8E72DE9F3410E4617461D46044698
:104D200020B94FF0FF3002B0BDE8F0810368002BDE
:104D3000F7D04368002BF4D04FF6FF78D4E9042372
:104D40009A4216D223685B8923B1E368934204BF79
:104D5000043323610423216960680DEB030200F032
:104D60004CFB0028DDD1A37A2BB1D4E903329A425F
:104D700001D30120D7E72389BDF80610434501F18F
:104D8000040203D0BDF804C09C450BD115B1BDF899
:104D900004302B8023690433336039802369134442
:104DA0002361C0E7236913442361C7E748B103685F
:104DB0003BB143682BB1C068884294BF00200120FA
:104DC00070474FF0FF30704702F09DBE4FF44073C4
:104DD00058433030704773B50C460546164600F010
:104DE0004BFBA04203D9284600F046FB04464FF493
:104DF0004073A9686A46303903FB14112846FFF74F
:104E000020FF0028A4BF009B336002B070BD10B526
:104E1000044600F031FB2378032B19BF4FF4407395
:104E2000434300EB400000F13003A06818BF30336B
:104E3000834201D900F09DFBC01A10BD70B50D462C
:104E4000044602F020FC2A46A0F108010423204673
:104E5000BDE8704000F0D1BA13B50446019102F0EC
:104E600012FC0423A0F108010DEB0302204602F01E
:104E70004DFC02B010BD2C2310B503FB0101886A64
:104E80004B6A013803EBC00149680433914200D3F7
:104E900010BD013853F830402144F7E74FF4407219
:104EA0002DE9F843846E804662438D6830320021DC
:104EB000FFF7E1FFD8F82410A5EB020901EBC003CE
:104EC0005F680B68FF1A51F83030012140461F44DB
:104ED000FFF7D1FFD8F85010521B01EBC0030E684A
:104EE0005B6851F830109B1B0B44BB4204EB440041
:104EF00000F1300034BFD219D21882422CBF0020FA
:104F0000801AA9EB0000BDE8F88301292DE9F341DF
:104F1000174601D900F02DFB2C2303FB0104D4F824
:104F20002080B8F1000FF5D0E368268940461E4482
:104F3000042331460DEB030200F05FFA054620B171
:104F40000125284602B0BDE8F08146F60813BDF8F9
:104F5000042064899A421AD1BDF806309C4201D0DF
:104F60000325EEE7042340460DEB0302A11900F0F0
:104F700044FA0028E4D146F60713BDF804209A420B
:104F8000EED1BDF80610214431443960D9E7002C38
:104F9000F1D0E5E72DE9F3411E46836805468B42D3
:104FA0000C4690462FD95B1A93422CD3EEB16A4639
:104FB000FFF747FE002828DB013C009F44446A4677
:104FC00021462846FFF73DFE00281EDBDDE9008470
:104FD00028462246414600F03AFA002815DB6EB119
:104FE000474512D208F1FF34E9E701396A464144E6
:104FF000FFF727FE002808DB009FE0E74444A742B4
:1050000003D30134DBE74FF0FF3002B0BDE8F0819D
:105010004FF4807213B501290346019208460AD164
:105020005A6A03F1280401A900F056FA08B9019B55
:10503000236002B010BD022903D11A6D03F154049C
:10504000F1E7032903D1DA6D03F16004EBE70120F6
:10505000EFE710B528B1BDE810406C22002102F046
:105060004ABDFBF7E1FCF6E770B513460E46154660
:1050700000210246044600F031F950B92B460121C7
:10508000204604F12C0200F029F910B1002E08BFCF
:10509000002070BD0123036003F10123436000235E
:1050A000C0E9023370474379012B07D10368012B14
:1050B00004D10079431E5842584170470020704780
:1050C000F7B58B7907460E4623B3846D2046FFF76C
:1050D0009EFEB96E0546304600F0F5F805442046C0
:1050E00000F0CAF90746204600F0CDF90722014634
:1050F0000DF1010002F0FFFC33796A468DF80030B3
:1051000029463B46204600F08DF9003818BF0120A3
:1051100003B0F0BD046AD9E710B412B110BCFFF7B8
:1051200039BF104610BC7047002382681946FFF74C
:10513000F3BF002110B504460846FBF7D3F904F18C
:105140002001C0B2FCF72EFA70B90121FBF7CAF9B1
:1051500004F14C01C0B2FCF725FA28B9032004F190
:105160005801FCF71FFA08B100F003FA10BD10B5A2
:105170000446806D08B100F03FF9E06C08B100F022
:105180003BF9206A18B1BDE8104000F035B910BDF8
:1051900013B50C4601AA816E2046FFF71CFE0028BD
:1051A00009DB0199A26801232046521AFFF7B4FFD8
:1051B000C00F02B010BD0120FBE737B50C46C06C34
:1051C00069461546FEF778FC024608B100F0D1F9B1
:1051D000E979012904D0204602F0EEFA0028F5D141
:1051E0009DF80330012B04D1204602F0C4FA0028B8
:1051F000ECD12046A968FFF72FFE0028E6D1204613
:10520000FEF738FC0028E1D103B030BD73B50D4680
:105210000646FBF71DFF0128E86005D0022807D0ED
:1052200020B9002002B070BDB46D1CB900F0A1F926
:10523000346AFAE72A4631462046FBF74DFE00283D
:10524000F0D1204602F01FFA012301460DF10702BA
:10525000204600F0D2F878B9012220460DF107016E
:1052600002F025FA10B101238DF807309DF80730C0
:1052700003F00F03EB71D4E70120D3E7002370B5EF
:105280001A461D461C468A4201D39A4205D2466AF6
:1052900006EBC4067668013432448B4201D39A424D
:1052A0000ED9066D8A4206EBC506766805F1010542
:1052B0003344ECD39942E6D89A42E4D1601E70BDE3
:1052C0008A42F9D2E3E710B5036801EB41045A1EA4
:1052D0000379013B594304FB021010BD2DE9F7434C
:1052E00005460C4617461E46002B4BD01846FFF7C6
:1052F000DAFE0146002845D12846FBF735FB01A917
:105300008146FFF79BFD8046484600F075F8B8F1EE
:10531000000F45D101992846FFF7B0FF414600280C
:105320000BDA33685A1E8A421AD3B4FA84F4640939
:105330002C2303FB0455286A1AE0AB6D6A6AD3F884
:1053400008C002EBC0035B689C4507D304320138F8
:1053500004D352F830E073449C45F8D20131DEE7C3
:105360008B420FD1012C06D13379012BE0D9A86DE6
:1053700058B900F0FEF82CB93479022C94BF0024FF
:105380000124D5E7022CD3D1F1E720233A460021AE
:1053900000F033F8003818BF012003B0BDE8F083F7
:1053A0000120FAE7002070470FB407B504A951F8AF
:1053B000040B0191FCF7A2F803B05DF804EB04B014
:1053C000704770470FB407B504A951F8040B019159
:1053D000FCF794F803B05DF804EB04B070470029C3
:1053E00008DB8068884205D9401A904234BF00200B
:1053F0000120704700207047704770B516461A4666
:1054000005460C46FFF7EBFF48B16968E8682144A0
:10541000826814683246A446BDE8704060476FF069
:10542000150070BD70B516461A4605460C46FFF7C6
:10543000D6FF48B16968E8682144826854683246FA
:10544000A446BDE8704060476FF0150070BD10B510
:105450000B460446FFF7C3FF40B16168E06819449A
:1054600083689B682BB1BDE8104018476FF01500AA
:1054700010BD6FF05700FBE708B5C0688368DB68B4
:105480009847006808BD08B5C0688368DB6898471E
:10549000407908BD70B54C680368A34201D2012071
:1054A00070BD8A682244934201D30020F8E74E6918
:1054B000D1E90325B54203D36FF00B038B61F4E709
:1054C0001B1B42F835304368086902EBC002536089
:1054D0000B6901330B61E2E737B50C46C0B201A995
:1054E0001546FCF75FF800280CDB019850B1214607
:1054F0002A46FCF77DF804460198FFF77DFF204619
:1055000003B030BD6FF01504F9E7012801D1EFF3C6
:105510000583FEF7A7BB01460068FFF7F6BF08B595
:10552000FCF78EF8BDE80840FCF7AEB8002101207A
:10553000FFF7EBBF08B5FCF777FAFEF723FCFFF7A0
:105540009FF8FCF7BFFAFEF75DFC61B662B680F328
:105550001188BFF36F8F704772B6002383F31188F1
:10556000BFF36F8FBFF34F8F30BF62B6BFF36F8F44
:10557000704708B5FCF7E0FA08B5FCF7C9FA002057
:1055800008BD704708B5062201210020FCF716FB74
:10559000002206201146FCF731FA012107220846B5
:1055A000FCF70CFB002207201146FCF727FA082223
:1055B00001210220FCF702FB002208201146FCF723
:1055C0001DFA092201210320FCF7F8FA0022092024
:1055D0001146FCF713FA0A2201210420FCF7EEFA27
:1055E00000220A201146FCF709FA05211722084675
:1055F000FCF7E4FA002217201146FCF7FFF92822F5
:1056000006210A20FCF7DAFA002228201146FCF7CE
:10561000F5F9002008BD0120884070470F2300F0F5
:10562000030204329200934043EA9000020C92FA83
:10563000A2F2B2FA82F210B5C3B29B0003F180432A
:1056400003F580339C68914024EA1040014399603F
:1056500010BD0B8882B0C3F30B0303F6EC72C2F3E8
:105660000B02082A14D803F1804303F504331A68A7
:105670004868024300201A600B88C3F30B0303F150
:10568000804303F504331B680193019B02B070470C
:105690006FF08500FAE70B88C3F30B0303F6EC7297
:1056A000C2F30B02082A9FBF03F1804303F50433C2
:1056B0001A6849689BBF00208A436FF085001A6012
:1056C0007047072808D8EA23C34013F0010F14BF1E
:1056D00000206FF0850070476FF08500704710B5AF
:1056E0000888C0F30B00FFF7ECFF00281FDB4A68B7
:1056F000FF2A1BD093B203F1804303F504331868EB
:10570000C2F38454C2F3054204FA02F220EA020210
:105710001A6049688BB203F1804303F504331868BB
:10572000CA0EC1F305418A4002431A60002010BD31
:10573000088808B5C0F30B0000F6EC73C3F30B0345
:10574000082B0AD800F1804000F5043002684B684D
:10575000934314BF0120022008BDFFF7B2FF0028C9
:1057600014BF01200220F7E7704700207047704700
:10577000F7B51C460023164682682360A3600D46D9
:105780005369694601AA9847019B5A1E01921BB9A9
:105790006FF0150003B0F0BD0098A268476821685B
:1057A000676085B9B31AD0F800C0634528BF634667
:1057B00003FB07111A442160A26002689A4206D8CE
:1057C00008300090E0E76B1AB3FBF7F3EBE700203B
:1057D000E0E713460022FFF7CBBF2DE9F047002496
:1057E000836886B0884691465B6902AA01A99847FA
:1057F000A2462546029BAB4202D806B0BDE8F08720
:105800000026019F07EBC5077B6804933A680AEB03
:105810000603B24202D89A460135EBE749460394A3
:10582000059303A8C0470028E7D0049B01361C4419
:10583000ECE743681C330B60012313607047436837
:1058400000209B69C1E900307047FEF73FBB4FF075
:10585000FF324FF0FF33FEF76DBBF0B58FB04468F9
:10586000D0F810C00020DDE914658DF8001001218A
:10587000CDE90950CDF801008DF80500D007CDE93C
:105880000716CDE90B1602F08007CDF818D00D955C
:1058900014D59CF810201BBAD107049357BFBDF84C
:1058A0001130CDF80130ADF801309DF813304EBF06
:1058B00005238DF80330042307930B9306AB029363
:1058C000211D0AAB7FB1002D14BF02220122CDE9B8
:1058D000032302230593206883681C68002302AA1F
:1058E000A0470FB0F0BD0122CDE9032302230593A9
:1058F000206883681C6804ABF1E7002373B50D1EB4
:10590000466814BF04210621CDE9003380220446F5
:10591000FFF7A3FF96F829309B0609D540B93DB99A
:105920000346CDE90000802298212046FFF795FF2D
:1059300002B070BD1FB5012301930DF10F03009359
:10594000002305211A46FFF788FF08B99DF80F00CC
:1059500005B05DF804FB2DE9FF41064615461C46DF
:1059600001270DF10F08002305211A463046CDE925
:105970000087FFF772FF40B99DF80F30DB0704D5B1
:105980002846214601F0F8FFEDE704B0BDE8F081BC
:105990002DE9F3471F4643680D1E064690469B6956
:1059A0005CDBEA199A4259D80069FFF750FF0021E1
:1059B0003046FFF7A2FF0446002844D181462FB9A4
:1059C00001213046FFF799FF044640E0B7F5807F9C
:1059D000BA4628BF4FF4807A2A4605EB0A03002D09
:1059E00003F1FF334FEA1323B8BF05F1FF02B3EB16
:1059F000222F08D06B42DBB25FFA85FA58BFC3F1A1
:105A0000000ACAF5807A0023802206213046CDE9BB
:105A10000099FFF722FF0446A8B92B4681220221F4
:105A20003046CDE9008AFFF718FF044658B9012235
:105A300000233046FFF78FFFA7EB0A070446D04448
:105A400055440028BBD001213046FFF756FF30698E
:105A5000FFF7FBFE204602B0BDE8F0876FF01504AB
:105A6000F8E7F7B51E4643680D1E044617469B69C6
:105A700014DBAA199A4211D80069FFF7E8FE2B46F9
:105A8000012203212046CDE90076FFF7E6FE054618
:105A90002069FFF7DAFE284603B0F0BD6FF0150568
:105AA000F9E72DE9FF41044600694FF0FF3201217B
:105AB00001F0ECFE6668306801F0ACFE28B96FF0CA
:105AC0001205284604B0BDE8F081F06818B101F075
:105AD000A1FE0028F3D02069FFF7B9FE2046FFF7AA
